:020000040000FA
:1000000002114EE5E8542064207015AFBEEF7F006A
:10001000FEADBDEF2DFFE43E8FF012047F7F012285
:100020007F00220213B843A14075F8011214038F18
:02003000A2220A
:100033000214D60203F7E86480F8E933E833601169
:100043000460F0ED33EC337009E8FCE9FDEAFEEB04
:10005300FF220460DED3EB9FEA9EE99DE8C2E78CB2
:10006300F0C2F795F0400CE8CCF8E9CDF9EACEFA06
:10007300EBCFFB1203C285D0F05804700320D5B335
:10008300E80470075002B2D502040192D5EC046073
:10009300F7E4CCC0E0C398F8603B94186008400DC7
:1000A300D0E0FB0203D9E4FBFAC9FC8028E830E482
:1000B30006E4C9FBE4CAFCE830E305E4C9CACBFCA7
:1000C300E854076010F8C3E913F9EA13FAEB13FBDA
:1000D300EC13FCD8F130F52FC3E49CFCEF9BFFEE4F
:1000E3009AFEED99FDD0E0FBEF4E4D4C701222DBF2
:1000F300030203FEEC2CFCEF33FFEE33FEED33FD86
:10010300ED30E7EB0203D9EF2BFFEE3AFEED39FDBD
:10011300D0E0FB50130BBB0003020401ED13FDEE13
:1001230013FEEF13FFEC13FC0203D9EC4D6011E84F
:10013300497017ED33EC3304600DE4FCFFFEFD2240
:10014300E933E8330470F80203F71203C25804607A
:1001530009E4CC24815006285009020401284003F5
:100163000203FEC0E0EB4A7044B98006D0E0FB0214
:1001730003EDEF4E701CBD8008EBFFEAFEE9FD8046
:10018300EBE98DF0A4FEE5F0020217E9CDF9EAFEF2
:10019300EBFFEF89F0A4FCE5F0CE89F0A42EFFE499
:1001A30035F0CD89F0A42DFEE435F08067EF4E7075
:1001B30005BD80D780C3EF8BF0A4ACF0EE8BF0A429
:1001C3002CFCE435F0F8EF8AF0A42CE5F038FCE4DD
:1001D30033CB8DF0A42CFCE5F03BF8EE8AF0A42C95
:1001E300FCE5F038F8E433CF89F0A42CFCE5F038D3
:1001F300CF3400CE89F0A42FFFE5F03EFEE433C9EF
:100203008DF0A42EFEE5F039CD8AF0A42FFFE5F0A2
:100213003EFEE43DFD33D0E0FB50070BBB000F0275
:100223000401EC2CFCEF33FFEE33FEED33FD020350
:10023300D9020401EC5D046005E85904700302036C
:10024300F71203C2580460F6EC4860F2EC7004FD48
:10025300FEFF22C860DB2481C85009C398600250A6
:10026300060203FE9850CAF582E9294B4A7005AB92
:10027300820203ED75F0007C1A7880C3EF9BEE9A3F
:10028300ED99400DC3EF9BFFEE9AFEED99FDE84219
:10029300F0DC23ACF0D0E0FFD0E0FED0E0FDAB8299
:1002A30020E7101BEB60BAEC2CFCEF33FFEE33FEC0
:1002B300ED33FD0203D9E803F830E705C0F075F02C
:1002C30000EF2FFFEE33FEED33FD40B830E7C28081
:1002D300AA74F8CC6480CCC86480C8F58204604FEB
:1002E300C3EB9FF5F0EA9E42F0E99D42F0E89C459E
:1002F300F0603C501DE5825FFFE582D313CB5BCBFF
:10030300F42B5582FB50280ABA002409B9002008AF
:10031300801DE5825BFBE582D313CF5FCFF4C3136C
:100323002F5582FF50090EBE00050DBD00010CC301
:10033300EB9FF5F0EA9E42F0E99D42F0E89C45F020
:100343006007CC4820E701B3EC2275F020800E75DE
:10035300F010800575F0087D007E007F003392D594
:1003630030D5031205BBEC334010EF33FFEE33FE01
:10037300ED33FDEC33FCD5F0ED22E5F0247EA2D580
:1003830013CC92E7CDCEFF22EDD2E7CD33EC3392FF
:10039300D524814006E4FFFEFDFC22FCE4CFCECD54
:1003A300CC24E0501174FF80EDC3CC13CCCD13CD1E
:1003B300CE13CECF13CF0470F030D5DE0205BBE9E8
:1003C300D2E7C933E833F892D5EDD2E7CD33EC3336
:1003D300FC5002B2D522EC30E7100FBF000C0EBE6A
:1003E30000080DBD00040BEB6014A2D5EB13FCED6C
:1003F30092E7FD2274FFFCFDFEFF22E480F8A2D504
:1004030074FF13FC7D80E480EFBB010CE58229F5CA
:1004130082E5833AF583E0225006E92582F8E62255
:10042300BBFE06E92582F8E222E58229F582E5830F
:100433003AF583E49322BB010689828A83F0225032
:1004430002F722BBFE01F322F8BB010DE58229F579
:1004530082E5833AF583E8F0225006E92582C8F65F
:1004630022BBFE05E92582C8F222EF8DF0A4A8F095
:10047300CF8CF0A428CE8DF0A42EFE22BB010A89D6
:10048300828A83F0E5F0A3F0225006F709A7F0195A
:1004930022BBFE06F3E5F009F31922E88FF0A4CCA2
:1004A3008BF0A42CFCE98EF0A42CFC8AF0EDA42C98
:1004B300FCEA8EF0A4CDA8F08BF0A42DCC3825F067
:1004C300FDE98FF0A42CCD35F0FCEB8EF0A4FEA952
:1004D300F0EB8FF0A4CFC5F02ECD39FEE43CFCEA5F
:1004E300A42DCE35F0FDE43CFC2275F008758200A6
:1004F300EF2FFFEE33FECD33CDCC33CCC58233C5E6
:10050300829BED9AEC99E58298400CF582EE9BFE76
:10051300ED9AFDEC99FC0FD5F0D6E4CEFBE4CDFAD1
:10052300E4CCF9A88222B800C1B90059BA002DEC75
:100533008BF084CFCECDFCE5F0CBF97818EF2FFF0D
:10054300EE33FEED33FDEC33FCEB33FB10D70399B5
:100553004004EB99FB0FD8E5E4F9FA227818EF2F62
:10056300FFEE33FEED33FDEC33FCC933C910D70581
:100573009BE99A4007EC9BFCE99AF90FD8E0E4C9A0
:10058300FAE4CCFB2275F010EF2FFFEE33FEED33D0
:10059300FDCC33CCC833C810D7079BEC9AE89940FD
:1005A3000AED9BFDEC9AFCE899F80FD5F0DAE4CD5F
:1005B300FBE4CCFAE4C8F922C3E49FFFE49EFEE423
:1005C3009DFDE49CFC22EB9FF5F0EA9E42F0E99D41
:1005D30042F0E89C45F022E8600FECC313FCED13F6
:1005E300FDEE13FEEF13FFD8F12274332546F9E431
:1005F300FAFBC3740F9546FD121312AE07EE2546A0
:10060300F546FD7C00C394047480948050037F00FE
:1006130022E53364237066E534644B7060E535642A
:1006230052705AC3ED940AEC6480948050037F00A7
:10063300227B007A0079377D061210A98F0E8E0D6A
:100643008D0C8C0BE4FB7A80F9F81205298F0E8E42
:100653000D8D0C8C0BE412034DAB45AA44A943A8A2
:100663004212012E12038B8F0E8E0D8D0C8C0B7B81
:10067300007A00797612144B7E0A020A2EE533645F
:1006830023705DE53464507057E53564577051E568
:1006930046C3940B7480948050037F00227B007ABE
:1006A3000079377D071210A98F0E8E0D8D0C8C0BE0
:1006B300E412034DAB4AAA49A948A84712023712CC
:1006C300038B8F0E8E0D8D0C8C0BE4FFE4FDFC78F9
:1006D300081205DA787AA60708A60E7E0B020A2E00
:1006E300E533B4231DE534B44718E535B44E13E5BB
:1006F30046C394067480948050037F00227E0602D2
:100703000A2EE53364237030E5346452702AE535EC
:1007130064467024E546C394057480948050037F37
:100723000022E5377881B43106E64404F68004E616
:1007330054FBF67E05020A2EE533B4231DE534B4DB
:100743004318E535B45413E546C3940A7480948082
:1007530050037F00227E0A020A2EE5336423706C65
:10076300E53464467066E53564527060E53664517D
:10077300705AE546C3940A7480948050037F002224
:100783007B007A0079387D051210A98F0E8E0D8DAE
:100793000C8C0BC3E50E94BCF50EE50D9434F50DEE
:1007A300E50C9400F50CE50B9400F50BAF0EAE0DC4
:1007B300AD0CFCE47B04FAF9F81205298F0E8E0DBB
:1007C3008D0C8C0B120A367E0A020A2EE533642343
:1007D300705BE53464507055E5356452704FE5360F
:1007E30064547049E546C3940C7480948050037F2D
:1007F30000227B007A0079387D071210A98F0E8EB4
:100803000D8D0C8C0BE412034DAB4AAA49A948A8E1
:100813004712023712038B8F0E8E0D8D0C8C0B7BC0
:10082300007A00797C12144B7E0C020A2EE53364A5
:1008330023706FE534644D7069E535644F7063E58B
:10084300366444705DE546C3940674809480500317
:100853007F00227881E654FCF608E654F8F6E53882
:10086300B4310C18E64401F608E64401F6802EE59F
:1008730038B432077881E64402800AE538B4320D91
:100883007881E64403F608E64403F68010E538B4BD
:10089300340B7881E64401F608E64407F67E060247
:1008A3000A2EE53364237030E5346441702AE5355C
:1008B30064547024E5366454701EE546C39407748B
:1008C30080948050037F00221210A18F0E8E0D8D15
:1008D3000C8C0B78800209E4E53364237030E53433
:1008E3006441702AE53564417024E5366441701E25
:1008F300E546C394077480948050037F002212104E
:10090300A18F0E8E0D8D0C8C0B78830209E4E533D9
:1009130064237030E5346450702AE53564537024E1
:10092300E5366441701EE546C39407748094805095
:10093300037F00221210A18F0E8E0D8D0C8C0B786D
:10094300860209E4E5336423702FE534644170299A
:10095300E53564417023E5366442701DE546C39472
:10096300077480948050037F00221210A18F0E8E93
:100973000D8D0C8C0B78848068E5336423702FE530
:100983003464507029E53564537023E5366442704E
:100993001DE546C394077480948050037F002212A0
:1009A30010A18F0E8E0D8D0C8C0B78878033E53361
:1009B30064237033E5346441702DE5356441702759
:1009C300E53664437021E546C394077480948050F0
:1009D300037F00221210A18F0E8E0D8D0C8C0B78CD
:1009E30085A6077E078044E5336423703CE53464C1
:1009F300507036E53564537030E5366443702AE54C
:100A030046C394077480948050037F00221210A180
:100A13008F0E8E0D8D0C8C0B7888A6077E07121512
:100A2300257F071215067F01227E01AF06121506E8
:100A33007F00228F128E118D108C0FE4F516F515A1
:100A4300F514F513E5122483F516E51134FFF515B6
:100A5300E51034FFF514E50F34FFF513E4752E4864
:100A6300752D0DF52CF52BAF16AE15AD14AC131279
:100A73000FA88F1A8E198D188C17AB1AAA19A918DB
:100A8300A817AF16AE15AD14AC13120529E4120363
:100A93004D8F228E218D208C1FAB1AAA19A918A85D
:100AA30017E47F487E0DFDFC120529E412034D8FE8
:100AB300268E258D248C23AB26AA25A924A823E4DE
:100AC300FFFE7D807C471202378F1E8E1D8D1C8C8E
:100AD3001BE4FBFA7980784712012E8F1E8E1D8D41
:100AE3001C8C1BAB22AA21A920A81F12012E8F1E2A
:100AF3008E1D8D1C8C1B12038B8F168E158D148CE3
:100B030013E4FFFEFDE51378181205DA7866A607ED
:100B1300E4FFFEE514FDE4FC78101205DA7867A61D
:100B230007E4FFE515FEE4FDFC78081205DA7868B2
:100B3300A60708A616E512247DF516E43511F5156A
:100B4300E43510F514E4350FF513E4752E48752DCF
:100B53000DF52CF52BAF16AE15AD14AC13120FA873
:100B63008F1A8E198D188C17AB1AAA19A918A817E2
:100B7300AF16AE15AD14AC13120529E412034D8F55
:100B8300228E218D208C1FAB1AAA19A918A817E44D
:100B93007F487E0DFDFC120529E412034D8F268E3E
:100BA300258D248C23AB26AA25A924A823E4FFFEA4
:100BB3007D807C471202378F1E8E1D8D1C8C1BE49B
:100BC300FBFA7980784712012E8F1E8E1D8D1C8CA7
:100BD3001BAB22AA21A920A81F12012E8F1E8E1D36
:100BE3008D1C8C1B12038B8F168E158D148C13E4A6
:100BF300FFFEFDE51378181205DA786AA607E4FF0D
:100C0300FEE514FDE4FC78101205DA786BA607E420
:100C1300FFE515FEE4FDFC78081205DA786CA607FB
:100C230008A616AF12AE11AD10AC0FE412034D7946
:100C3300F578C2120F728F1A8E198D188C17AB1A92
:100C4300AA19A918A817AF16AE15AD14AC1312053F
:100C530029E412034D8F228E218D208C1FAB1AAAFB
:100C630019A918A817E47FD07E84FDFC120529E496
:100C730012034D8F268E258D248C23AB26AA25A9FE
:100C830024A823E4FFFE7D807C471202378F1E8E4B
:100C93001D8D1C8C1BE4FBFA7980784712012E8F83
:100CA3001E8E1D8D1C8C1BAB22AA21A920A81F12EE
:100CB300012E8F1E8E1D8D1C8C1B12038B8F168E87
:100CC300158D148C13E4FFFEFDE51378181205DA75
:100CD300786EA607E4FFFEE514FDE4FC7810120528
:100CE300DA786FA607E4FFE515FEE4FDFC78081249
:100CF30005DA7870A60708A616AF12AE11AD10ACD0
:100D03000FE412034D79FF7842120F728F1A8E1976
:100D13008D188C17AB1AAA19A918A817AF16AE15F8
:100D2300AD14AC13120529E412034D8F228E218DCD
:100D3300208C1FAB1AAA19A918A817E47FD07E84A8
:100D4300FDFC120529E412034D8F268E258D248C7C
:100D530023AB26AA25A924A823E4FFFE7D807C4794
:100D63001202378F1E8E1D8D1C8C1BE4FBFA7980BB
:100D7300784712012E8F1E8E1D8D1C8C1BAB22AA51
:100D830021A920A81F12012E8F1E8E1D8D1C8C1BC6
:100D930012038B8F168E158D148C13E4FFFEFDE565
:100DA3001378181205DA7872A607E4FFFEE514FD3E
:100DB300E4FC78101205DA7873A607E4FFE515FE64
:100DC300E4FDFC78081205DA7874A60708A6162253
:100DD300748C254CF9E4FAFB8F0E8E0D8D0C8C0B65
:100DE3008B0F8A108911E4F514FFFEFDFCAB0EAAEC
:100DF3000DA90CA80B1202D45010AB0FAA10A91105
:100E0300851482758300742D802EE4FBFA79C878EB
:100E130042AF0EAE0DAD0CAC0B12023712038B8E2C
:100E2300128F13E51345126014EF2430AB0FAA1091
:100E3300A91185148275830012044B0514AF0EAEFD
:100E43000DAD0CAC0BC004C005C006C007AE12AF9D
:100E5300137C007D6412046DAC06AD07E4120352EB
:100E6300A804A905AA06AB07D007D006D005D0046D
:100E73001200398F0E8E0D8D0C8C0BE4FBFA79204A
:100E8300784112023712038B8E128F13E51345122A
:100E93006014EF2430AB0FAA10A911851482758357
:100EA3000012044B0514AF0EAE0DAD0CAC0BC00419
:100EB300C005C006C007AE12AF137C007D0A120442
:100EC3006DAC06AD07E4120352A804A905AA06AB4C
:100ED30007D007D006D005D0041200398F0E8E0D2F
:100EE3008D0C8C0B12038B8E128F13EF2430AB0FF0
:100EF300AA10A91185148275830012044B05148569
:100F03001482758300742E12044B0514AF0EAE0DBC
:100F1300AD0CAC0BC004C005C006C007AC12AD13CA
:100F2300E4120352A804A905AA06AB07D007D0060A
:100F3300D005D0041200398F0E8E0D8D0C8C0BE46E
:100F4300FBFA7920784112012E8F0E8E0D8D0C8CB9
:100F53000B12038B8E128F13EF2430AB0FAA10A941
:100F63001185148275830012044B0514AF1422E417
:100F7300FBFA12003D8F228E218D208C1FE4FFFE91
:100F83007D207C41AB22AA21A920A81F12012E1289
:100F9300038B8F168E158D148C13E4752ED0752D3F
:100FA30084F52CF52B8F2A8E298D288C27E4753216
:100FB30001F531F530F52FAF2EAE2DAD2CAC2BABAB
:100FC3002AAA29A928A827C31205C9700302108ECB
:100FD300E52A5401FFE4FEFDFCFBFAF9F8C3120510
:100FE300C9705BE52E5401FFE4FEFDFCF8C3120556
:100FF300C9704BAF2AAE29AD28AC277B02F8120586
:10100300298F2A8E298D288C27AF2EAE2DAD2CAC9F
:101013002BE47B02FAF9F81205298F2E8E2D8D2CE5
:101023008C2BAF32AE31AD30AC2FE47B02FAF9F842
:1010330012049E8F328E318D308C2F020FBAAF2E59
:10104300AE2DAD2CAC2BAB2AAA29A928A827D312E5
:1010530005C9401BE52A952EF52AE529952DF52985
:10106300E528952CF528E527952BF527020FBAC31C
:10107300E52E952AF52EE52D9529F52DE52C9528B8
:10108300F52CE52B9527F52B020FBAAF2AAE29AD28
:1010930028AC27AB32AA31A930A82F02049E7B00CB
:1010A3007A0079387D028B0F8A1089118D12E4F54D
:1010B30017F516F515F514751F01F51EF51DF51C2D
:1010C300F513E513C395125079C3E5129513FFE4A5
:1010D3009400CF24FFCF34FFAB0FAA10A9118F8246
:1010E300F58312040C24D0FFE434FFFE3395E08F24
:1010F3001B8E1AF519F518FDAC18AB1FAA1EA91DF6
:10110300A81C12049E8F1B8E1A8D198C18E51725A7
:101113001BF517E516351AF516E5153519F515E519
:10112300143518F514AF1FAE1EAD1DAC1CE47B0ABD
:10113300FAF9F812049E8F1F8E1E8D1D8C1C051349
:101143008080AF17AE16AD15AC14221215C3787F8D
:10115300E4F6D8FD75819D02119802136AE493A306
:10116300F8E493A34003F68001F208DFF48029E456
:1011730093A3F85407240CC8C333C4540F4420C8A2
:10118300834004F456800146F6DFE4800B01020439
:1011930008102040809011DDE47E019360BCA3FF22
:1011A300543F30E509541FFEE493A360010ECF546E
:1011B300C025E060A840B8E493A3FAE493A3F8E45D
:1011C30093A3C8C582C8CAC583CAF0A3C8C582C8C9
:1011D300CAC583CADFE9DEE780BE202864EB90003E
:1011E30000000000000000000000000000000000FC
:1011F30000000000000000000000000000000000EC
:1012030000000000000146000442499A33CD044720
:101213003BE74DB4045A00000000045600000000F0
:10122300016300016201045E0175D7200254258029
:10123300015200128C247374612C3030302E302C08
:10124300302E302A0D0A00014C00014B00015301DE
:1012530000E47B0CFAF9F8AF61AE60AD5FAC5E12EF
:1012630005298F0E8E0D8D0C8C0BE47B02FAF9F899
:101273001205298F0E8E0D8D0C8C0BC006C007AE88
:1012830054AF55AB07AA06E4F9F8D007D006120508
:10129300298F0E8E0D8D0C8C0BC3E4950EF50E74F9
:1012A30001950DF50DE4950CF50CE4950BF50BE5A7
:1012B3000EFF22AD07AC06E41203528F5D8E5C8DE8
:1012C3005B8C5AE4FBFA798078441202378F5D8E87
:1012D3005C8D5B8C5A7B007A40794E784512012EE7
:1012E3008F5D8E5C8D5B8C5A7B007A40796078448D
:1012F3001200398F5D8E5C8D5B8C5A7B667A6679C2
:101303005678401202378F5D8E5C8D5B8C5A228B30
:101313000F8A108911E4FF855212E552700122ED04
:10132300D395124002AD12E4FFEFC39D5016744DE6
:101333002FF8E6AB0FAA10A9118F82758300120450
:101343004B0F80E5C3E5529DF512F552E4FFEFC361
:1013530095125010ED2F244DF8E6FE744D2FF8A68C
:10136300060F80EAAF0522E4F50A1215417B007AE5
:10137300007908120003EF3395E0FEEF64014E702D
:1013830010E50AAF09AE0870051212B680031215F4
:10139300BEE553640170061214921215AE1205EDE8
:1013A300EF64017009E562640170031215A5AF0AC9
:1013B30012157380B8C0E0C0D075D000C000E598A6
:1013C3005401640170145398FEE55264057002F5EC
:1013D30052744D2552F8A6990552E59854026402B9
:1013E30070175398FDE54BB54C05755301800A748E
:1013F3008C254BF8E6F599054BD000D0D0D0E032E0
:10140300E47B02FAF9F8AF61AE60AD5FAC5E120542
:10141300298F0E8E0D8D0C8C0B7BA07A2579267867
:10142300001205298F0E8E0D8D0C8C0BE50E24FFFB
:10143300F50EE50D34FFF50DE50C34FFF50CE50B6A
:1014430034FFF50BE50EFF228F128E118D108C0FDA
:10145300E4FFFEFDE50F78181205DAEF120439E414
:10146300FFFEE510FDE4FC78101205DA900001EFB1
:1014730012044BE4FFE511FEE4FDFC78081205DAE3
:10148300900002EF12044B900003E51202044B7527
:101493004C05AF5DAE5CAD5BAC5A120DD3EF254C82
:1014A300F54C248CF8762C054CAF59AE58AD57AC9F
:1014B30056120DD3EF254CF54C248CF8762A054CA7
:1014C300748C254CF8760D054C748C254CF8760AF3
:1014D300054C22C0E0C0D075D000C000E5F830E074
:1014E3001853F87FE56364287005756201800D74F5
:1014F300642563F8E6F5A3056353F88FD000D0D0D5
:10150300D0E032C3E5469FF546E4FEEEC395465070
:1015130010EE2F2433F8E6FD74332EF8A6050E8063
:10152300EA22E4788BF6FFEFC3942774809480500B
:101533000C74642FF8E6788B26F60F80EA2253A802
:101543007F12155D1215C71215961215CB120026C0
:101553001215861215B743A8802243A41043A60D83
:1015630075F4FB75D4CF75D5FF75E10375E24022A1
:10157300EF3395E04F700575BB1E800375BB1243B7
:10158300E8102275BB1275BA1F75BC4875D10F756B
:10159300E88022758920538EFC1212548F8D758832
:1015A3004022E4F563F56243F88022E4F54BF553FA
:1015B3004398022275B81075A850228E0B8F0C2207
:0C15C30053D9BF2275B283227598102204
:00000001FF
