:020000040000FA
:1000000002115FE5E8542064207015AFBEEF7F0059
:10001000FEADBDEF2DFFE43E8FF012047F7F012285
:100020007F00220213C943A14075F80D1214148FEA
:02003000A2220A
:100033000214E70203F7E86480F8E933E833601158
:100043000460F0ED33EC337009E8FCE9FDEAFEEB04
:10005300FF220460DED3EB9FEA9EE99DE8C2E78CB2
:10006300F0C2F795F0400CE8CCF8E9CDF9EACEFA06
:10007300EBCFFB1203C285D0F05804700320D5B335
:10008300E80470075002B2D502040192D5EC046073
:10009300F7E4CCC0E0C398F8603B94186008400DC7
:1000A300D0E0FB0203D9E4FBFAC9FC8028E830E482
:1000B30006E4C9FBE4CAFCE830E305E4C9CACBFCA7
:1000C300E854076010F8C3E913F9EA13FAEB13FBDA
:1000D300EC13FCD8F130F52FC3E49CFCEF9BFFEE4F
:1000E3009AFEED99FDD0E0FBEF4E4D4C701222DBF2
:1000F300030203FEEC2CFCEF33FFEE33FEED33FD86
:10010300ED30E7EB0203D9EF2BFFEE3AFEED39FDBD
:10011300D0E0FB50130BBB0003020401ED13FDEE13
:1001230013FEEF13FFEC13FC0203D9EC4D6011E84F
:10013300497017ED33EC3304600DE4FCFFFEFD2240
:10014300E933E8330470F80203F71203C25804607A
:1001530009E4CC24815006285009020401284003F5
:100163000203FEC0E0EB4A7044B98006D0E0FB0214
:1001730003EDEF4E701CBD8008EBFFEAFEE9FD8046
:10018300EBE98DF0A4FEE5F0020217E9CDF9EAFEF2
:10019300EBFFEF89F0A4FCE5F0CE89F0A42EFFE499
:1001A30035F0CD89F0A42DFEE435F08067EF4E7075
:1001B30005BD80D780C3EF8BF0A4ACF0EE8BF0A429
:1001C3002CFCE435F0F8EF8AF0A42CE5F038FCE4DD
:1001D30033CB8DF0A42CFCE5F03BF8EE8AF0A42C95
:1001E300FCE5F038F8E433CF89F0A42CFCE5F038D3
:1001F300CF3400CE89F0A42FFFE5F03EFEE433C9EF
:100203008DF0A42EFEE5F039CD8AF0A42FFFE5F0A2
:100213003EFEE43DFD33D0E0FB50070BBB000F0275
:100223000401EC2CFCEF33FFEE33FEED33FD020350
:10023300D9020401EC5D046005E85904700302036C
:10024300F71203C2580460F6EC4860F2EC7004FD48
:10025300FEFF22C860DB2481C85009C398600250A6
:10026300060203FE9850CAF582E9294B4A7005AB92
:10027300820203ED75F0007C1A7880C3EF9BEE9A3F
:10028300ED99400DC3EF9BFFEE9AFEED99FDE84219
:10029300F0DC23ACF0D0E0FFD0E0FED0E0FDAB8299
:1002A30020E7101BEB60BAEC2CFCEF33FFEE33FEC0
:1002B300ED33FD0203D9E803F830E705C0F075F02C
:1002C30000EF2FFFEE33FEED33FD40B830E7C28081
:1002D300AA74F8CC6480CCC86480C8F58204604FEB
:1002E300C3EB9FF5F0EA9E42F0E99D42F0E89C459E
:1002F300F0603C501DE5825FFFE582D313CB5BCBFF
:10030300F42B5582FB50280ABA002409B9002008AF
:10031300801DE5825BFBE582D313CF5FCFF4C3136C
:100323002F5582FF50090EBE00050DBD00010CC301
:10033300EB9FF5F0EA9E42F0E99D42F0E89C45F020
:100343006007CC4820E701B3EC2275F020800E75DE
:10035300F010800575F0087D007E007F003392D594
:1003630030D5031205BBEC334010EF33FFEE33FE01
:10037300ED33FDEC33FCD5F0ED22E5F0247EA2D580
:1003830013CC92E7CDCEFF22EDD2E7CD33EC3392FF
:10039300D524814006E4FFFEFDFC22FCE4CFCECD54
:1003A300CC24E0501174FF80EDC3CC13CCCD13CD1E
:1003B300CE13CECF13CF0470F030D5DE0205BBE9E8
:1003C300D2E7C933E833F892D5EDD2E7CD33EC3336
:1003D300FC5002B2D522EC30E7100FBF000C0EBE6A
:1003E30000080DBD00040BEB6014A2D5EB13FCED6C
:1003F30092E7FD2274FFFCFDFEFF22E480F8A2D504
:1004030074FF13FC7D80E480EFBB010CE58229F5CA
:1004130082E5833AF583E0225006E92582F8E62255
:10042300BBFE06E92582F8E222E58229F582E5830F
:100433003AF583E49322BB010689828A83F0225032
:1004430002F722BBFE01F322F8BB010DE58229F579
:1004530082E5833AF583E8F0225006E92582C8F65F
:1004630022BBFE05E92582C8F222EF8DF0A4A8F095
:10047300CF8CF0A428CE8DF0A42EFE22BB010A89D6
:10048300828A83F0E5F0A3F0225006F709A7F0195A
:1004930022BBFE06F3E5F009F31922E88FF0A4CCA2
:1004A3008BF0A42CFCE98EF0A42CFC8AF0EDA42C98
:1004B300FCEA8EF0A4CDA8F08BF0A42DCC3825F067
:1004C300FDE98FF0A42CCD35F0FCEB8EF0A4FEA952
:1004D300F0EB8FF0A4CFC5F02ECD39FEE43CFCEA5F
:1004E300A42DCE35F0FDE43CFC2275F008758200A6
:1004F300EF2FFFEE33FECD33CDCC33CCC58233C5E6
:10050300829BED9AEC99E58298400CF582EE9BFE76
:10051300ED9AFDEC99FC0FD5F0D6E4CEFBE4CDFAD1
:10052300E4CCF9A88222B800C1B90059BA002DEC75
:100533008BF084CFCECDFCE5F0CBF97818EF2FFF0D
:10054300EE33FEED33FDEC33FCEB33FB10D70399B5
:100553004004EB99FB0FD8E5E4F9FA227818EF2F62
:10056300FFEE33FEED33FDEC33FCC933C910D70581
:100573009BE99A4007EC9BFCE99AF90FD8E0E4C9A0
:10058300FAE4CCFB2275F010EF2FFFEE33FEED33D0
:10059300FDCC33CCC833C810D7079BEC9AE89940FD
:1005A3000AED9BFDEC9AFCE899F80FD5F0DAE4CD5F
:1005B300FBE4CCFAE4C8F922C3E49FFFE49EFEE423
:1005C3009DFDE49CFC22EB9FF5F0EA9E42F0E99D41
:1005D30042F0E89C45F022E8600FECC313FCED13F6
:1005E300FDEE13FEEF13FFD8F12274332546F9E431
:1005F300FAFBC3740F9546FD121323AE07EE25468F
:10060300F546FD7C00C394047480948050037F00FE
:1006130022E53364237077E534644B7071E5356408
:1006230052706BC3ED940AEC6480948050037F0096
:10063300227B007A0079377D061210BA8F0E8E0D59
:100643008D0C8C0BE4FB7A80F9F81205298F0E8E42
:100653000D8D0C8C0BE47B04FAF9F81205298F0E2F
:100663008E0D8D0C8C0BE412034DAB45AA44A943AC
:10067300A84212012E12038B8F0E8E0D8D0C8C0B44
:100683007B007A00797612145C7E0A020A3FE53316
:100693006423705DE53464507057E53564577051D9
:1006A300E546C3940B7480948050037F00227B0043
:1006B3007A0079377D071210BA8F0E8E0D8D0C8C50
:1006C3000BE412034DAB4AAA49A948A847120237C3
:1006D30012038B8F0E8E0D8D0C8C0BE4FFE4FDFC4F
:1006E30078081205DA787AA60708A60E7E0B020AA6
:1006F3003FE533B4231DE534B44718E535B44E1351
:10070300E546C394067480948050037F00227E06DE
:10071300020A3FE53364237030E5346452702AE5FE
:100723003564467024E546C3940574809480500371
:100733007F0022E5377881B43106E64404F680046D
:10074300E654FBF67E05020A3FE533B4231DE53488
:10075300B44318E535B45413E546C3940A7480943E
:100763008050037F00227E0A020A3FE53364237030
:100773006CE53464467066E53564527060E5366452
:1007830051705AE546C3940A7480948050037F00E5
:10079300227B007A0079387D051210BA8F0E8E0DF8
:1007A3008D0C8C0BC3E50E94BCF50EE50D9434F55E
:1007B3000DE50C9400F50CE50B9400F50BAF0EAEB4
:1007C3000DAD0CFCE47B04FAF9F81205298F0E8EAB
:1007D3000D8D0C8C0B120A477E0A020A3FE5336427
:1007E30023705BE53464507055E5356452704FE512
:1007F3003664547049E546C3940C74809480500366
:100803007F00227B007A0079387D071210BA8F0EA1
:100813008E0D8D0C8C0BE412034DAB4AAA49A948EB
:10082300A84712023712038B8F0E8E0D8D0C8C0B83
:100833007B007A00797C12145C7E0C020A3FE5335C
:100843006423706FE534644D7069E535644F7063FC
:10085300E5366444705DE546C39406748094805025
:10086300037F00227881E654FCF608E654F8F6E5A7
:1008730038B4310C18E64401F608E64401F6802E3C
:10088300E538B432077881E64402800AE538B432A9
:100893000D7881E64403F608E64403F68010E53854
:1008A300B4340B7881E64401F608E64407F67E0685
:1008B300020A3FE53364237030E5346441702AE56E
:1008C3003564547024E5366454701EE546C39407BA
:1008D3007480948050037F00221210B28F0E8E0D0D
:1008E3008D0C8C0B78800209F5E53364237030E5B9
:1008F300346441702AE53564417024E536644170FF
:100903001EE546C394077480948050037F0022122F
:1009130010B28F0E8E0D8D0C8C0B78830209F5E5CA
:100923003364237030E5346450702AE535645370C2
:1009330024E5366441701EE546C3940774809480B1
:1009430050037F00221210B28F0E8E0D8D0C8C0B74
:1009530078860209F5E5336423702FE5346441702A
:1009630029E53564417023E5366442701DE546C3CD
:1009730094077480948050037F00221210B28F0E6C
:100983008E0D8D0C8C0B78848068E5336423702F77
:10099300E53464507029E53564537023E5366442C9
:1009A300701DE546C394077480948050037F002232
:1009B3001210B28F0E8E0D8D0C8C0B78878033E561
:1009C3003364237033E5346441702DE5356441703D
:1009D30027E53664437021E546C394077480948009
:1009E30050037F00221210B28F0E8E0D8D0C8C0BD4
:1009F3007885A6077E078044E5336423703CE5349D
:100A030064507036E53564537030E5366443702ABC
:100A1300E546C394077480948050037F002212102C
:100A2300B28F0E8E0D8D0C8C0B7888A6077E071265
:100A330015367F071215177F01227E01AF061215A7
:100A4300177F00228F128E118D108C0FE4F516F58F
:100A530015F514F513E5122483F516E51134FFF5A6
:100A630015E51034FFF514E50F34FFF513E4752E87
:100A730048752D0DF52CF52BAF16AE15AD14AC1333
:100A8300120FB98F1A8E198D188C17AB1AAA19A9C0
:100A930018A817AF16AE15AD14AC13120529E4123E
:100AA300034D8F228E218D208C1FAB1AAA19A918F2
:100AB300A817E47F487E0DFDFC120529E412034DBF
:100AC3008F268E258D248C23AB26AA25A924A82323
:100AD300E4FFFE7D807C471202378F1E8E1D8D1C26
:100AE3008C1BE4FBFA7980784712012E8F1E8E1D32
:100AF3008D1C8C1BAB22AA21A920A81F12012E8FAB
:100B03001E8E1D8D1C8C1B12038B8F168E158D1440
:100B13008C13E4FFFEFDE51378181205DA7866A658
:100B230007E4FFFEE514FDE4FC78101205DA7867AC
:100B3300A607E4FFE515FEE4FDFC78081205DA7864
:100B430068A60708A616E512247DF516E43511F507
:100B530015E43510F514E4350FF513E4752E4875D7
:100B63002D0DF52CF52BAF16AE15AD14AC13120FDE
:100B7300B98F1A8E198D188C17AB1AAA19A918A830
:100B830017AF16AE15AD14AC13120529E412034DBD
:100B93008F228E218D208C1FAB1AAA19A918A81792
:100BA300E47F487E0DFDFC120529E412034D8F26D8
:100BB3008E258D248C23AB26AA25A924A823E4FF04
:100BC300FE7D807C471202378F1E8E1D8D1C8C1B71
:100BD300E4FBFA7980784712012E8F1E8E1D8D1C3F
:100BE3008C1BAB22AA21A920A81F12012E8F1E8EB7
:100BF3001D8D1C8C1B12038B8F168E158D148C135D
:100C0300E4FFFEFDE51378181205DA786AA607E417
:100C1300FFFEE514FDE4FC78101205DA786BA607F5
:100C2300E4FFE515FEE4FDFC78081205DA786CA60E
:100C33000708A616AF12AE11AD10AC0FE412034DA8
:100C430079F578C2120F838F1A8E198D188C17AB12
:100C53001AAA19A918A817AF16AE15AD14AC13121A
:100C63000529E412034D8F228E218D208C1FAB1A90
:100C7300AA19A918A817E47FD07E84FDFC120529C0
:100C8300E412034D8F268E258D248C23AB26AA25B3
:100C9300A924A823E4FFFE7D807C471202378F1E20
:100CA3008E1D8D1C8C1BE4FBFA7980784712012E74
:100CB3008F1E8E1D8D1C8C1BAB22AA21A920A81F61
:100CC30012012E8F1E8E1D8D1C8C1B12038B8F16F3
:100CD3008E158D148C13E4FFFEFDE51378181205B1
:100CE300DA786EA607E4FFFEE514FDE4FC78101243
:100CF30005DA786FA607E4FFE515FEE4FDFC780846
:100D03001205DA7870A60708A616AF12AE11AD1059
:100D1300AC0FE412034D79FF7842120F838F1A8EC2
:100D2300198D188C17AB1AAA19A918A817AF16AEE4
:100D330015AD14AC13120529E412034D8F228E2135
:100D43008D208C1FAB1AAA19A918A817E47FD07E8F
:100D530084FDFC120529E412034D8F268E258D2474
:100D63008C23AB26AA25A924A823E4FFFE7D807C3F
:100D7300471202378F1E8E1D8D1C8C1BE4FBFA79E4
:100D830080784712012E8F1E8E1D8D1C8C1BAB226B
:100D9300AA21A920A81F12012E8F1E8E1D8D1C8C27
:100DA3001B12038B8F168E158D148C13E4FFFEFD1F
:100DB300E51378181205DA7872A607E4FFFEE51446
:100DC300FDE4FC78101205DA7873A607E4FFE51555
:100DD300FEE4FDFC78081205DA7874A60708A61667
:100DE30022748C254CF9E4FAFB8F0E8E0D8D0C8C3E
:100DF3000B8B0F8A108911E4F514FFFEFDFCAB0E7B
:100E0300AA0DA90CA80B1202D45010AB0FAA10A95B
:100E130011851482758300742D802EE4FBFA79C842
:100E23007842AF0EAE0DAD0CAC0B12023712038B32
:100E33008E128F13E51345126014EF2430AB0FAA03
:100E430010A91185148275830012044B0514AF0E8B
:100E5300AE0DAD0CAC0BC004C005C006C007AE128E
:100E6300AF137C007D6412046DAC06AD07E412037E
:100E730052A804A905AA06AB07D007D006D005D00F
:100E8300041200398F0E8E0D8D0C8C0BE4FBFA7956
:100E930020784112023712038B8E128F13E513450C
:100EA300126014EF2430AB0FAA10A91185148275B8
:100EB300830012044B0514AF0EAE0DAD0CAC0BC08A
:100EC30004C005C006C007AE12AF137C007D0A1232
:100ED300046DAC06AD07E4120352A804A905AA06E3
:100EE300AB07D007D006D005D0041200398F0E8E81
:100EF3000D8D0C8C0B12038B8E128F13EF2430ABE2
:100F03000FAA10A91185148275830012044B0514CE
:100F1300851482758300742E12044B0514AF0EAE34
:100F23000DAD0CAC0BC004C005C006C007AC12ADC0
:100F330013E4120352A804A905AA06AB07D007D0ED
:100F430006D005D0041200398F0E8E0D8D0C8C0B3C
:100F5300E4FBFA7920784112012E8F0E8E0D8D0C51
:100F63008C0B12038B8E128F13EF2430AB0FAA104E
:100F7300A91185148275830012044B0514AF142242
:100F8300E4FBFA12003D8F228E218D208C1FE4FF9B
:100F9300FE7D207C41AB22AA21A920A81F12012E8D
:100FA30012038B8F168E158D148C13E4752ED0754A
:100FB3002D84F52CF52B8F2A8E298D288C27E4750B
:100FC3003201F531F530F52FAF2EAE2DAD2CAC2B14
:100FD300AB2AAA29A928A827C31205C9700302109E
:100FE3009FE52A5401FFE4FEFDFCFBFAF9F8C31266
:100FF30005C9705BE52E5401FFE4FEFDFCF8C31246
:1010030005C9704BAF2AAE29AD28AC277B02F81275
:1010130005298F2A8E298D288C27AF2EAE2DAD2C36
:10102300AC2BE47B02FAF9F81205298F2E8E2D8D55
:101033002C8C2BAF32AE31AD30AC2FE47B02FAF9FE
:10104300F812049E8F328E318D308C2F020FCBAF6E
:101053002EAE2DAD2CAC2BAB2AAA29A928A827D3B9
:101063001205C9401BE52A952EF52AE529952DF58C
:1010730029E528952CF528E527952BF527020FCB95
:10108300C3E52E952AF52EE52D9529F52DE52C950D
:1010930028F52CE52B9527F52B020FCBAF2AAE298C
:1010A300AD28AC27AB32AA31A930A82F02049E7B0E
:1010B300007A0079387D028B0F8A1089118D12E432
:1010C300F517F516F515F514751F01F51EF51DF544
:1010D3001CF513E513C395125079C3E5129513FF5D
:1010E300E49400CF24FFCF34FFAB0FAA10A9118FD4
:1010F30082F58312040C24D0FFE434FFFE3395E021
:101103008F1B8E1AF519F518FDAC18AB1FAA1EA973
:101113001DA81C12049E8F1B8E1A8D198C18E5179F
:10112300251BF517E516351AF516E5153519F515C9
:10113300E5143518F514AF1FAE1EAD1DAC1CE47BD2
:101143000AFAF9F812049E8F1F8E1E8D1D8C1C0542
:10115300138080AF17AE16AD15AC14221215D478D8
:101163007FE4F6D8FD75819D0211A902137BE493F8
:10117300A3F8E493A34003F68001F208DFF4802987
:10118300E493A3F85407240CC8C333C4540F442076
:10119300C8834004F456800146F6DFE4800B010265
:1011A3000408102040809011EEE47E019360BCA3FC
:1011B300FF543F30E509541FFEE493A360010ECFB3
:1011C30054C025E060A840B8E493A3FAE493A3F8DD
:1011D300E493A3C8C582C8CAC583CAF0A3C8C5829D
:1011E300C8CAC583CADFE9DEE780BE202864EB9066
:1011F30000000000000000000000000000000000EC
:1012030000000000000000000000000000000000DB
:101213000000000000000146000442499A33CD0457
:10122300473BE74DB4045A00000000045600000099
:1012330000016300016201045E0175D72002542599
:1012430080015200128C247374612C3030302E30A4
:101253002C302E302A0D0A00014C00014B000153A3
:101263000100E47B0CFAF9F8AF61AE60AD5FAC5EF0
:101273001205298F0E8E0D8D0C8C0BE47B02FAF96F
:10128300F81205298F0E8E0D8D0C8C0BC006C0072E
:10129300AE54AF55AB07AA06E4F9F8D007D006124F
:1012A30005298F0E8E0D8D0C8C0BC3E4950EF50E58
:1012B3007401950DF50DE4950CF50CE4950BF50B08
:1012C300E50EFF22AD07AC06E41203528F5D8E5C80
:1012D3008D5B8C5AE4FBFA798078441202378F5D78
:1012E3008E5C8D5B8C5A7B007A40794E7845120177
:1012F3002E8F5D8E5C8D5B8C5A7B007A4079607893
:10130300441200398F5D8E5C8D5B8C5A7B667A66E6
:10131300795678401202378F5D8E5C8D5B8C5A2232
:101323008B0F8A108911E4FF855212E55270012256
:10133300EDD395124002AD12E4FFEFC39D50167436
:101343004D2FF8E6AB0FAA10A9118F8275830012F7
:10135300044B0F80E5C3E5529DF512F552E4FFEF10
:10136300C395125010ED2F244DF8E6FE744D2FF85F
:10137300A6060F80EAAF0522E4F50A1215527B0098
:101383007A007908120003EF3395E0FEEF64014E13
:101393007010E50AAF09AE0870051212C780031278
:1013A30015CFE553640170061214A31215BF12057D
:1013B300EDEF64017009E562640170031215B6AFC5
:1013C3000A12158480B8C0E0C0D075D000C000E513
:1013D300985401640170145398FEE5526405700239
:1013E300F552744D2552F8A6990552E598540264B6
:1013F3000270175398FDE54BB54C05755301800AF0
:10140300748C254BF8E6F599054BD000D0D0D0E08D
:1014130032E47B02FAF9F8AF61AE60AD5FAC5E1205
:1014230005298F0E8E0D8D0C8C0B7BA07A257926CA
:1014330078001205298F0E8E0D8D0C8C0BE50E2472
:10144300FFF50EE50D34FFF50DE50C34FFF50CE566
:101453000B34FFF50BE50EFF228F128E118D108CCE
:101463000FE4FFFEFDE50F78181205DAEF120439D9
:10147300E4FFFEE510FDE4FC78101205DA900001AC
:10148300EF12044BE4FFE511FEE4FDFC78081205BE
:10149300DA900002EF12044B900003E51202044BB2
:1014A300754C05AF5DAE5CAD5BAC5A120DE4EF2538
:1014B3004CF54C248CF8762C054CAF59AE58AD57EF
:1014C300AC56120DE4EF254CF54C248CF8762A0526
:1014D3004C748C254CF8760D054C748C254CF876A1
:1014E3000A054C22C0E0C0D075D000C000E5F8303A
:1014F300E01853F87FE56364287005756201800D79
:1015030074642563F8E6F5A3056353F88FD000D020
:10151300D0D0E032C3E5469FF546E4FEEEC39546E0
:101523005010EE2F2433F8E6FD74332EF8A6050E83
:1015330080EA22E4788BF6FFEFC3942774809480CB
:10154300500C74642FF8E6788B26F60F80EA22534A
:10155300A87F12156E1215D81215A71215DC1200EA
:10156300261215971215C843A8802243A41043A638
:101573000D75F4FB75D4CF75D5FF75E10375E240A6
:1015830022EF3395E04F700575BB1E800375BB12C8
:1015930043E8102275BB1275BA1F75BC4875D10F8D
:1015A30075E88022758920538EFC1212658F8D7524
:1015B300884022E4F563F56243F88022E4F54BF5B5
:1015C300534398022275B81075A850228E0B8F0CC6
:0D15D3002253D9BF2275B2832275981022D1
:00000001FF
