:020000040000FA
:10000000021321E5E8542064207015AFBEEF7F0095
:10001000FEADBDEF2DFFE43E8FF012047F7F012285
:100020007F002202159F43A14075F8011215EA8F47
:02003000A2220A
:100033000216BD0203F7E86480F8E933E833601180
:100043000460F0ED33EC337009E8FCE9FDEAFEEB04
:10005300FF220460DED3EB9FEA9EE99DE8C2E78CB2
:10006300F0C2F795F0400CE8CCF8E9CDF9EACEFA06
:10007300EBCFFB1203C285D0F05804700320D5B335
:10008300E80470075002B2D502040192D5EC046073
:10009300F7E4CCC0E0C398F8603B94186008400DC7
:1000A300D0E0FB0203D9E4FBFAC9FC8028E830E482
:1000B30006E4C9FBE4CAFCE830E305E4C9CACBFCA7
:1000C300E854076010F8C3E913F9EA13FAEB13FBDA
:1000D300EC13FCD8F130F52FC3E49CFCEF9BFFEE4F
:1000E3009AFEED99FDD0E0FBEF4E4D4C701222DBF2
:1000F300030203FEEC2CFCEF33FFEE33FEED33FD86
:10010300ED30E7EB0203D9EF2BFFEE3AFEED39FDBD
:10011300D0E0FB50130BBB0003020401ED13FDEE13
:1001230013FEEF13FFEC13FC0203D9EC4D6011E84F
:10013300497017ED33EC3304600DE4FCFFFEFD2240
:10014300E933E8330470F80203F71203C25804607A
:1001530009E4CC24815006285009020401284003F5
:100163000203FEC0E0EB4A7044B98006D0E0FB0214
:1001730003EDEF4E701CBD8008EBFFEAFEE9FD8046
:10018300EBE98DF0A4FEE5F0020217E9CDF9EAFEF2
:10019300EBFFEF89F0A4FCE5F0CE89F0A42EFFE499
:1001A30035F0CD89F0A42DFEE435F08067EF4E7075
:1001B30005BD80D780C3EF8BF0A4ACF0EE8BF0A429
:1001C3002CFCE435F0F8EF8AF0A42CE5F038FCE4DD
:1001D30033CB8DF0A42CFCE5F03BF8EE8AF0A42C95
:1001E300FCE5F038F8E433CF89F0A42CFCE5F038D3
:1001F300CF3400CE89F0A42FFFE5F03EFEE433C9EF
:100203008DF0A42EFEE5F039CD8AF0A42FFFE5F0A2
:100213003EFEE43DFD33D0E0FB50070BBB000F0275
:100223000401EC2CFCEF33FFEE33FEED33FD020350
:10023300D9020401EC5D046005E85904700302036C
:10024300F71203C2580460F6EC4860F2EC7004FD48
:10025300FEFF22C860DB2481C85009C398600250A6
:10026300060203FE9850CAF582E9294B4A7005AB92
:10027300820203ED75F0007C1A7880C3EF9BEE9A3F
:10028300ED99400DC3EF9BFFEE9AFEED99FDE84219
:10029300F0DC23ACF0D0E0FFD0E0FED0E0FDAB8299
:1002A30020E7101BEB60BAEC2CFCEF33FFEE33FEC0
:1002B300ED33FD0203D9E803F830E705C0F075F02C
:1002C30000EF2FFFEE33FEED33FD40B830E7C28081
:1002D300AA74F8CC6480CCC86480C8F58204604FEB
:1002E300C3EB9FF5F0EA9E42F0E99D42F0E89C459E
:1002F300F0603C501DE5825FFFE582D313CB5BCBFF
:10030300F42B5582FB50280ABA002409B9002008AF
:10031300801DE5825BFBE582D313CF5FCFF4C3136C
:100323002F5582FF50090EBE00050DBD00010CC301
:10033300EB9FF5F0EA9E42F0E99D42F0E89C45F020
:100343006007CC4820E701B3EC2275F020800E75DE
:10035300F010800575F0087D007E007F003392D594
:1003630030D5031205BBEC334010EF33FFEE33FE01
:10037300ED33FDEC33FCD5F0ED22E5F0247EA2D580
:1003830013CC92E7CDCEFF22EDD2E7CD33EC3392FF
:10039300D524814006E4FFFEFDFC22FCE4CFCECD54
:1003A300CC24E0501174FF80EDC3CC13CCCD13CD1E
:1003B300CE13CECF13CF0470F030D5DE0205BBE9E8
:1003C300D2E7C933E833F892D5EDD2E7CD33EC3336
:1003D300FC5002B2D522EC30E7100FBF000C0EBE6A
:1003E30000080DBD00040BEB6014A2D5EB13FCED6C
:1003F30092E7FD2274FFFCFDFEFF22E480F8A2D504
:1004030074FF13FC7D80E480EFBB010CE58229F5CA
:1004130082E5833AF583E0225006E92582F8E62255
:10042300BBFE06E92582F8E222E58229F582E5830F
:100433003AF583E49322BB010689828A83F0225032
:1004430002F722BBFE01F322F8BB010DE58229F579
:1004530082E5833AF583E8F0225006E92582C8F65F
:1004630022BBFE05E92582C8F222EF8DF0A4A8F095
:10047300CF8CF0A428CE8DF0A42EFE22BB010A89D6
:10048300828A83F0E5F0A3F0225006F709A7F0195A
:1004930022BBFE06F3E5F009F31922E88FF0A4CCA2
:1004A3008BF0A42CFCE98EF0A42CFC8AF0EDA42C98
:1004B300FCEA8EF0A4CDA8F08BF0A42DCC3825F067
:1004C300FDE98FF0A42CCD35F0FCEB8EF0A4FEA952
:1004D300F0EB8FF0A4CFC5F02ECD39FEE43CFCEA5F
:1004E300A42DCE35F0FDE43CFC2275F008758200A6
:1004F300EF2FFFEE33FECD33CDCC33CCC58233C5E6
:10050300829BED9AEC99E58298400CF582EE9BFE76
:10051300ED9AFDEC99FC0FD5F0D6E4CEFBE4CDFAD1
:10052300E4CCF9A88222B800C1B90059BA002DEC75
:100533008BF084CFCECDFCE5F0CBF97818EF2FFF0D
:10054300EE33FEED33FDEC33FCEB33FB10D70399B5
:100553004004EB99FB0FD8E5E4F9FA227818EF2F62
:10056300FFEE33FEED33FDEC33FCC933C910D70581
:100573009BE99A4007EC9BFCE99AF90FD8E0E4C9A0
:10058300FAE4CCFB2275F010EF2FFFEE33FEED33D0
:10059300FDCC33CCC833C810D7079BEC9AE89940FD
:1005A3000AED9BFDEC9AFCE899F80FD5F0DAE4CD5F
:1005B300FBE4CCFAE4C8F922C3E49FFFE49EFEE423
:1005C3009DFDE49CFC22EB9FF5F0EA9E42F0E99D41
:1005D30042F0E89C45F022E8600FECC313FCED13F6
:1005E300FDEE13FEEF13FFD8F122E8600FEFC333E4
:1005F300FFEE33FEED33FDEC33FCD8F122743825E6
:100603004BF9E4FAFBC3740F954BFD1214F98F0BEE
:10061300E50B254BF54BFD7C00C39404748094805B
:1006230050037F0022E53864237049E539644B7039
:1006330043E53A6452703DC3ED940AEC64809480C0
:1006430050037F00227B007A00793C7D0612127CE6
:100653008F0F8E0E8D0D8C0CE4FB7A80F9F812054A
:10066300298F0F8E0E8D0D8C0C8F538E528D518CC6
:10067300500208CFE53864236003020749E5396473
:10068300506003020749E53A64576003020749C310
:10069300E54B940B7480948050037F00227B007A97
:1006A30000793C7D0712127C8F0F8E0E8D0D8C0C02
:1006B300AB53AA52A951A85012049E8F578E568D40
:1006C300558C54E47B04FAF9F81205298F578E569A
:1006D3008D558C54AF0FAE0EAD0DAC0CE412034D23
:1006E300AB5BAA5AA959A8581202378F138E128DE1
:1006F300118C10AF57AE56AD55AC54E412034DAB4D
:1007030013AA12A911A8101202378F138E128D117A
:100713008C10AF4AAE49AD48AC47AB13AA12A9112E
:10072300A81012012E12038B8F0F8E0E8D0D8C0CC1
:100733007B007A007987121632E4788BF60876010B
:10074300750B0B020B5DE538B4231BE539B4471673
:10075300E53AB44E11C3E54B94067480948040038C
:100763000209A77F0022E53864237031E53964521A
:10077300702BE53A64467025C3E54B940574809469
:100783008050037F0022E53C7892B43106E64408AA
:10079300F68004E654F7F6750B05020B5DE5386445
:1007A30023600302085DE5396443600302085DE5E5
:1007B3003A6454600302085DC3E54B940A74809461
:1007C3008050037F00227B007A00793C7D06121261
:1007D3007C8F0F8E0E8D0D8C0CE4FFFEFDFCAB0F9A
:1007E300AA0EA90DA80CC31205C978926006E644A7
:1007F30004F68004E654FBF6AF0FAE0EAD0DAC0C61
:10080300E412034D8F138E128D118C10E4FBFA79D1
:100813002078411202378F138E128D118C10AB5B2F
:10082300AA5AA959A8581202378F138E128D118C08
:10083300107B007A247974784912012E8F138E125B
:100843008D118C1012038B8F0F8E0E8D0D8C0C7BE4
:10085300007A00799A1216328072E5386423707236
:10086300E5396446706CE53A64527066E53B645161
:100873007060C3E54B940A7480948050037F002218
:100883007B007A00793D7D0512127C8F0F8E0E8DD1
:100893000D8C0CC3E50F94BCF50FE50E9434F50EE7
:1008A300E50D9400F50DE50C9400F50CAF0FAE0EBD
:1008B300AD0DFCE47B04FAF9F81205298F0F8E0EB7
:1008C3008D0D8C0C8F4F8E4E8D4D8C4C750B0A02FB
:1008D3000B5DE5386423705CE53964507056E53A86
:1008E30064527050E53B6454704AC3E54B940C74F6
:1008F30080948050037F00227B007A00793D7D073E
:1009030012127C8F0F8E0E8D0D8C0CE412034DABE7
:100913005BAA5AA959A85812023712038B8F0F8E5C
:100923000E8D0D8C0C7B007A00798D121632750BAF
:100933000C020B5DE53864237070E539644D706A11
:10094300E53A644F7064E53B6444705EC3E54B94E1
:10095300067480948050037F00227892E654FCF65C
:1009630008E654F8F6E53DB4310C18E64401F60800
:10097300E64401F6802EE53DB432077892E6440260
:10098300800AE53DB4320D7892E64403F608E64466
:1009930003F68010E53DB4340B7892E64401F60883
:1009A300E64407F6750B06020B5DE53864237041D8
:1009B300E5396441703BE53A64547035E53B645472
:1009C300702FC3E54B94077480948050037F0022FB
:1009D3001212748F0F8E0E8D0D8C0C78011205ED93
:1009E3008F0F8E0E8D0D8C0C7891EFF6F4F6020BB3
:1009F30007E53864237032E5396441702CE53A64C5
:100A0300417026E53B64417020C3E54B9407748035
:100A1300948050037F00221212748F0F8E0E8D0D5F
:100A23008C0C7894A607020B07E53864237032E533
:100A3300396450702CE53A64537026E53B64417089
:100A430020C3E54B94077480948050037F002212E7
:100A530012748F0F8E0E8D0D8C0C7897A607020BD8
:100A630007E53864237031E5396441702BE53A6456
:100A7300417025E53B6442701FC3E54B94077480C6
:100A8300948050037F00221212748F0F8E0E8D0DEF
:100A93008C0C7895A607806CE53864237031E539B2
:100AA3006450702BE53A64537025E53B6442701F34
:100AB300C3E54B94077480948050037F0022121285
:100AC300748F0F8E0E8D0D8C0C7898A6078035E5EC
:100AD3003864237034E5396441702EE53A6441701B
:100AE30028E53B64437022C3E54B940774809480EC
:100AF30050037F00221212748F0F8E0E8D0D8C0CFB
:100B03007896A607750B078051E53864237048E58E
:100B13003964507042E53A6453703CE53B6443707A
:100B230036C3E54B94077480948050037F002212F0
:100B330012748F0F8E0E8D0D8C0C7899A607750B82
:100B430007AF4FAE4EAD4DAC4C120B6512170CAF49
:100B53000B1216ED7F0122750B01AF0B1216ED7F01
:100B630000228F178E168D158C14E4F51BF51AF5DC
:100B730019F518AF57AE56AD55AC5478011205DAD6
:100B83008F1B8E1A8D198C18C3E517951BF51BE562
:100B930016951AF51AE5159519F519E5149518F52D
:100BA30018E475334875320DF531F530AF1BAE1AC5
:100BB300AD19AC1812117B8F1F8E1E8D1D8C1CABB3
:100BC3001FAA1EA91DA81CAF1BAE1AAD19AC181283
:100BD3000529E412034D8F278E268D258C24AB1F08
:100BE300AA1EA91DA81CE47F487E0DFDFC12052941
:100BF300E412034D8F2B8E2A8D298C28AB2BAA2A26
:100C0300A929A828E4FFFE7D807C471202378F23A1
:100C13008E228D218C20E4FBFA7980784712012EF5
:100C23008F238E228D218C20AB27AA26A925A824C9
:100C330012012E8F238E228D218C2012038B8F1B6A
:100C43008E1A8D198C18E4FFFEFDE518781812052D
:100C5300DA7877A607E4FFFEE519FDE4FC781012C5
:100C630005DA7878A607E4FFE51AFEE4FDFC7808C8
:100C73001205DA7879A60708A61BAF57AE56AD550D
:100C8300AC5478011205DA8F1B8E1A8D198C18E576
:100C930017251BF51BE516351AF51AE5153519F554
:100CA30019E5143518F518E475334875320DF53127
:100CB300F530AF1BAE1AAD19AC1812117B8F1F8E16
:100CC3001E8D1D8C1CAB1FAA1EA91DA81CAF1BAE1D
:100CD3001AAD19AC18120529E412034D8F278E267D
:100CE3008D258C24AB1FAA1EA91DA81CE47F487E5A
:100CF3000DFDFC120529E412034D8F2B8E2A8D293D
:100D03008C28AB2BAA2AA929A828E4FFFE7D807C86
:100D1300471202378F238E228D218C20E4FBFA7930
:100D230080784712012E8F238E228D218C20AB27B2
:100D3300AA26A925A82412012E8F238E228D218C69
:100D43002012038B8F1B8E1A8D198C18E4FFFEFD66
:100D5300E51878181205DA787BA607E4FFFEE51993
:100D6300FDE4FC78101205DA787CA607E4FFE51AA7
:100D7300FEE4FDFC78081205DA787DA60708A61BB9
:100D8300AF57AE56AD55AC5478011205DA8F1B8EB2
:100D93001A8D198C18AF17AE16AD15AC14E41203E7
:100DA3004DE4FBFA7920784012003DC004C005C031
:100DB30006C007AF1BAE1AAD19AC18E412034DA859
:100DC30004A905AA06AB07D007D006D005D00412A4
:100DD300003912114B8F1F8E1E8D1D8C1CAB1FAA49
:100DE3001EA91DA81CAF1BAE1AAD19AC18120529FC
:100DF300E412034D8F278E268D258C24AB1FAA1E4C
:100E0300A91DA81CE47FD07E84FDFC120529E412F1
:100E1300034D8F2B8E2A8D298C28AB2BAA2AA92927
:100E2300A828E4FFFE7D807C471202378F238E22A1
:100E33008D218C20E4FBFA7980784712012E8F23D1
:100E43008E228D218C20AB27AA26A925A824120146
:100E53002E8F238E228D218C2012038B8F1B8E1AB3
:100E63008D198C18E4FFFEFDE51878181205DA7861
:100E73007FA607E4FFFEE519FDE4FC78101205DA0E
:100E83007880A607E4FFE51AFEE4FDFC7808120566
:100E9300DA7881A60708A61BAF57AE56AD55AC54FA
:100EA30078011205DA8F1B8E1A8D198C18AF17AEC5
:100EB30016AD15AC14E412034DE4FBFA7920784027
:100EC30012003DC004C005C006C007AF1BAE1AAD7B
:100ED30019AC18E412034DD003D002D001D0001294
:100EE300003D12114B8F1F8E1E8D1D8C1CAB1FAA34
:100EF3001EA91DA81CAF1BAE1AAD19AC18120529EB
:100F0300E412034D8F278E268D258C24AB1FAA1E3A
:100F1300A91DA81CE47FD07E84FDFC120529E412E0
:100F2300034D8F2B8E2A8D298C28AB2BAA2AA92916
:100F3300A828E4FFFE7D807C471202378F238E2290
:100F43008D218C20E4FBFA7980784712012E8F23C0
:100F53008E228D218C20AB27AA26A925A824120135
:100F63002E8F238E228D218C2012038B8F1B8E1AA2
:100F73008D198C18E4FFFEFDE51878181205DA7850
:100F830083A607E4FFFEE519FDE4FC78101205DAF9
:100F93007884A607E4FFE51AFEE4FDFC7808120551
:100FA300DA7885A60708A61B22749F255DF9E4FA63
:100FB300FB8F0E8E0D8D0C8C0B8B0F8A108911E419
:100FC300F514FFFEFDFCAB0EAA0DA90CA80B120233
:100FD300D45010AB0FAA10A9118514827583007425
:100FE3002D802EE4FBFA79C87842AF0EAE0DAD0C1E
:100FF300AC0B12023712038B8E128F13E5134512BB
:101003006014EF2430AB0FAA10A9118514827583E5
:101013000012044B0514AF0EAE0DAD0CAC0BC004A7
:10102300C005C006C007AE12AF137C007D64120476
:101033006DAC06AD07E4120352A804A905AA06ABDA
:1010430007D007D006D005D0041200398F0E8E0DBD
:101053008D0C8C0BE4FBFA792078411202371203D2
:101063008B8E128F13E51345126014EF2430AB0FF0
:10107300AA10A91185148275830012044B0514AFBD
:101083000EAE0DAD0CAC0BC004C005C006C007AE60
:1010930012AF137C007D0A12046DAC06AD07E41297
:1010A3000352A804A905AA06AB07D007D006D005AA
:1010B300D0041200398F0E8E0D8D0C8C0B12038B06
:1010C3008E128F13EF2430AB0FAA10A9118514824F
:1010D30075830012044B0514851482758300742EE6
:1010E30012044B0514AF0EAE0DAD0CAC0BC004C017
:1010F30005C006C007AC12AD13E4120352A804A93D
:1011030005AA06AB07D007D006D005D004120039D4
:101113008F0E8E0D8D0C8C0BE4FBFA792078411227
:10112300012E8F0E8E0D8D0C8C0B12038B8E128F56
:1011330013EF2430AB0FAA10A91185148275830015
:1011430012044B0514AF14228F278E268D258C2471
:10115300E4FFFE7D207C41AB27AA26A925A8241203
:10116300012E12038B8F1B8E1A8D198C18E4753385
:10117300D0753284F531F5308F2F8E2E8D2D8C2C3A
:10118300E4753701F536F535F534AF33AE32AD31AD
:10119300AC30AB2FAA2EA92DA82CC31205C97003FE
:1011A300021261E52F5401FFE4FEFDFCFBFAF9F89E
:1011B300C31205C9705BE5335401FFE4FEFDFCF87F
:1011C300C31205C9704BAF2FAE2EAD2DAC2C7B02D5
:1011D300F81205298F2F8E2E8D2D8C2CAF33AE3226
:1011E300AD31AC30E47B02FAF9F81205298F338E66
:1011F300328D318C30AF37AE36AD35AC34E47B0253
:10120300FAF9F812049E8F378E368D358C3402111D
:101213008DAF33AE32AD31AC30AB2FAA2EA92DA892
:101223002CD31205C9401BE52F9533F52FE52E95D9
:1012330032F52EE52D9531F52DE52C9530F52C0263
:10124300118DC3E533952FF533E532952EF532E550
:1012530031952DF531E530952CF53002118DAF2FF9
:10126300AE2EAD2DAC2CAB37AA36A935A83402046B
:101273009E7B007A00793D7D028B148A1589168D39
:1012830017E4F51CF51BF51AF519752401F523F57B
:1012930022F521F518E518C395175079C3E517957D
:1012A30018FFE49400CF24FFCF34FFAB14AA15A991
:1012B300168F82F58312040C24D0FFE434FFFE332F
:1012C30095E08F208E1FF51EF51DFDAC1DAB24AAE6
:1012D30023A922A82112049E8F208E1F8D1E8C1DF0
:1012E300E51C2520F51CE51B351FF51BE51A351EEE
:1012F300F51AE519351DF519AF24AE23AD22AC213E
:10130300E47B0AFAF9F812049E8F248E238D228C33
:101313002105188080AF1CAE1BAD1AAC1922121721
:10132300AA787FE4F6D8FD7581B002136B021551DC
:10133300E493A3F8E493A34003F68001F208DFF4F7
:101343008029E493A3F85407240CC8C333C4540F6F
:101353004420C8834004F456800146F6DFE4800B42
:1013630001020408102040809013B0E47E019360D2
:10137300BCA3FF543F30E509541FFEE493A360016F
:101383000ECF54C025E060A840B8E493A3FAE493D9
:10139300A3F8E493A3C8C582C8CAC583CAF0A3C887
:1013A300C582C8CAC583CADFE9DEE780BE202A75C5
:1013B300EB900000000000000000000000000000AF
:1013C300000000000000000000000000000000001A
:1013D30000000000000000000000014B000447492A
:1013E3009A33CD04583BE74DB40450000000140475
:1013F30054000000FA044C0000445C046B0000003D
:1014030000046700000000017400017301046F0110
:1014130075D72002652580016300129F24737461D0
:101423002C3030302E302C302E302A0D0A00015D46
:1014330000015C0001640100E47B0CFAF9F8AF726F
:10144300AE71AD70AC6F1205298F0E8E0D8D0C8CA5
:101453000BE47B02FAF9F81205298F0E8E0D8D0C21
:101463008C0BC006C007AE65AF66AB07AA06E4F9EE
:10147300F8D007D0061205298F0E8E0D8D0C8C0B1C
:10148300C3E4950EF50E7401950DF50DE4950CF579
:101493000CE4950BF50BE50EFF22AD07AC06E41249
:1014A30003528F6E8E6D8D6C8C6BE4FBFA798078B2
:1014B300441202378F6E8E6D8D6C8C6B7B007A407D
:1014C300794E784512012E8F6E8E6D8D6C8C6B7BF1
:1014D300007A40796078441200398F6E8E6D8D6C7E
:1014E3008C6B7B667A66795678401202378F6E8EE4
:1014F3006D8D6C8C6B228B148A158916E4FF8563C2
:1015030017E563700122EDD395174002AD17E4FF91
:10151300EFC39D5016745E2FF8E6AB14AA15A916F7
:101523008F8275830012044B0F80E5C3E5639DF53D
:1015330017F563E4FFEFC395175010ED2F245EF802
:10154300E6FE745E2FF8A6060F80EAAF0522E4F5E7
:101553000A1217287B007A007908120003EF3395EB
:10156300E0FEEF64014E7010E50AAF09AE087005A6
:1015730012149D80031217A5E56464017006121608
:1015830079121795120600EF64017009E57364017F
:10159300700312178CAF0A12175A80B8C0E0C0D07C
:1015A30075D000C000E5985401640170145398FE8F
:1015B300E56364057002F563745E2563F8A6990517
:1015C30063E5985402640270175398FDE55CB55DBA
:1015D30005756401800A749F255CF8E6F599055C3E
:1015E300D000D0D0D0E032E47B02FAF9F8AF72AE8B
:1015F30071AD70AC6F1205298F0E8E0D8D0C8C0B97
:101603007BA07A25792678001205298F0E8E0D8D01
:101613000C8C0BE50E24FFF50EE50D34FFF50DE5FF
:101623000C34FFF50CE50B34FFF50BE50EFF228FB1
:10163300178E168D158C14E4FFFEFDE51478181231
:1016430005DAEF120439E4FFFEE515FDE4FC78103A
:101653001205DA900001EF12044BE4FFE516FEE4F5
:10166300FDFC78081205DA900002EF12044B90009B
:1016730003E51702044B755D05AF6EAE6DAD6CAC43
:101683006B120FACEF255DF55D249FF8762C055D9D
:10169300AF6AAE69AD68AC67120FACEF255DF55D5F
:1016A300249FF8762A055D749F255DF8760D055D08
:1016B300749F255DF8760A055D22C0E0C0D075D021
:1016C30000C000E5F830E01853F87FE574642A7031
:1016D30005757301800D74752574F8E6F5A305741B
:1016E30053F88FD000D0D0D0E032C3E54B9FF54BF9
:1016F300E4FEEEC3954B5010EE2F2438F8E6FD744C
:10170300382EF8A6050E80EA22E4789EF6FFEFC392
:10171300942974809480500C74752FF8E6789E2673
:10172300F60F80EA2253A87F1217441217AE12173E
:101733007D1217B212002612176D12179E43A8804E
:101743002243A41043A60D75F4FB75D4CF75D5FFC2
:1017530075E10375E24022EF3395E04F700575BBE9
:101763001E800375BB1243E8102275BB1275BA1FA6
:1017730075BC4875D10F75E88022758920538EFC9E
:1017830012143B8F8D75884022E4F574F57343F88A
:101793008022E4F55CF5644398022275B81075A8BD
:1017A30050228E0B8F0C2253D9BF2275B283227520
:0317B30098102269
:00000001FF
