:020000040000FA
:10000000021501E478E4F6FFEFC3942D7480948028
:10001000500C74B72FF8E678E426F60F80EA2253E6
:10002000D9BF220218E043A14075F80112187C8F55
:02003000A2220A
:10003300021B4F0203F7E86480F8E933E8336011E9
:100043000460F0ED33EC337009E8FCE9FDEAFEEB04
:10005300FF220460DED3EB9FEA9EE99DE8C2E78CB2
:10006300F0C2F795F0400CE8CCF8E9CDF9EACEFA06
:10007300EBCFFB1203C285D0F05804700320D5B335
:10008300E80470075002B2D502040192D5EC046073
:10009300F7E4CCC0E0C398F8603B94186008400DC7
:1000A300D0E0FB0203D9E4FBFAC9FC8028E830E482
:1000B30006E4C9FBE4CAFCE830E305E4C9CACBFCA7
:1000C300E854076010F8C3E913F9EA13FAEB13FBDA
:1000D300EC13FCD8F130F52FC3E49CFCEF9BFFEE4F
:1000E3009AFEED99FDD0E0FBEF4E4D4C701222DBF2
:1000F300030203FEEC2CFCEF33FFEE33FEED33FD86
:10010300ED30E7EB0203D9EF2BFFEE3AFEED39FDBD
:10011300D0E0FB50130BBB0003020401ED13FDEE13
:1001230013FEEF13FFEC13FC0203D9EC4D6011E84F
:10013300497017ED33EC3304600DE4FCFFFEFD2240
:10014300E933E8330470F80203F71203C25804607A
:1001530009E4CC24815006285009020401284003F5
:100163000203FEC0E0EB4A7044B98006D0E0FB0214
:1001730003EDEF4E701CBD8008EBFFEAFEE9FD8046
:10018300EBE98DF0A4FEE5F0020217E9CDF9EAFEF2
:10019300EBFFEF89F0A4FCE5F0CE89F0A42EFFE499
:1001A30035F0CD89F0A42DFEE435F08067EF4E7075
:1001B30005BD80D780C3EF8BF0A4ACF0EE8BF0A429
:1001C3002CFCE435F0F8EF8AF0A42CE5F038FCE4DD
:1001D30033CB8DF0A42CFCE5F03BF8EE8AF0A42C95
:1001E300FCE5F038F8E433CF89F0A42CFCE5F038D3
:1001F300CF3400CE89F0A42FFFE5F03EFEE433C9EF
:100203008DF0A42EFEE5F039CD8AF0A42FFFE5F0A2
:100213003EFEE43DFD33D0E0FB50070BBB000F0275
:100223000401EC2CFCEF33FFEE33FEED33FD020350
:10023300D9020401EC5D046005E85904700302036C
:10024300F71203C2580460F6EC4860F2EC7004FD48
:10025300FEFF22C860DB2481C85009C398600250A6
:10026300060203FE9850CAF582E9294B4A7005AB92
:10027300820203ED75F0007C1A7880C3EF9BEE9A3F
:10028300ED99400DC3EF9BFFEE9AFEED99FDE84219
:10029300F0DC23ACF0D0E0FFD0E0FED0E0FDAB8299
:1002A30020E7101BEB60BAEC2CFCEF33FFEE33FEC0
:1002B300ED33FD0203D9E803F830E705C0F075F02C
:1002C30000EF2FFFEE33FEED33FD40B830E7C28081
:1002D300AA74F8CC6480CCC86480C8F58204604FEB
:1002E300C3EB9FF5F0EA9E42F0E99D42F0E89C459E
:1002F300F0603C501DE5825FFFE582D313CB5BCBFF
:10030300F42B5582FB50280ABA002409B9002008AF
:10031300801DE5825BFBE582D313CF5FCFF4C3136C
:100323002F5582FF50090EBE00050DBD00010CC301
:10033300EB9FF5F0EA9E42F0E99D42F0E89C45F020
:100343006007CC4820E701B3EC2275F020800E75DE
:10035300F010800575F0087D007E007F003392D594
:1003630030D5031205D4EC334010EF33FFEE33FEE8
:10037300ED33FDEC33FCD5F0ED22E5F0247EA2D580
:1003830013CC92E7CDCEFF22EDD2E7CD33EC3392FF
:10039300D524814006E4FFFEFDFC22FCE4CFCECD54
:1003A300CC24E0501174FF80EDC3CC13CCCD13CD1E
:1003B300CE13CECF13CF0470F030D5DE0205D4E9CF
:1003C300D2E7C933E833F892D5EDD2E7CD33EC3336
:1003D300FC5002B2D522EC30E7100FBF000C0EBE6A
:1003E30000080DBD00040BEB6014A2D5EB13FCED6C
:1003F30092E7FD2274FFFCFDFEFF22E480F8A2D504
:1004030074FF13FC7D80E480EFBB010689828A833D
:10041300E0225002E722BBFE02E32289828A83E4C0
:100423009322BB010CE58229F582E5833AF583E04B
:10043300225006E92582F8E622BBFE06E92582F86A
:10044300E222E58229F582E5833AF583E49322BB30
:10045300010689828A83F0225002F722BBFE01F350
:1004630022F8BB010DE58229F582E5833AF583E89D
:10047300F0225006E92582C8F622BBFE05E9258253
:10048300C8F222EF8DF0A4A8F0CF8CF0A428CE8D73
:10049300F0A42EFE22BB010A89828A83F0E5F0A331
:1004A300F0225006F709A7F01922BBFE06F3E5F088
:1004B30009F31922E88FF0A4CC8BF0A42CFCE98E6D
:1004C300F0A42CFC8AF0EDA42CFCEA8EF0A4CDA8B9
:1004D300F08BF0A42DCC3825F0FDE98FF0A42CCDC2
:1004E30035F0FCEB8EF0A4FEA9F0EB8FF0A4CFC5A2
:1004F300F02ECD39FEE43CFCEAA42DCE35F0FDE42C
:100503003CFC2275F008758200EF2FFFEE33FECD21
:1005130033CDCC33CCC58233C5829BED9AEC99E5C0
:100523008298400CF582EE9BFEED9AFDEC99FC0F50
:10053300D5F0D6E4CEFBE4CDFAE4CCF9A88222B818
:1005430000C1B90059BA002DEC8BF084CFCECDFC9D
:10055300E5F0CBF97818EF2FFFEE33FEED33FDEC2A
:1005630033FCEB33FB10D703994004EB99FB0FD813
:10057300E5E4F9FA227818EF2FFFEE33FEED33FDB1
:10058300EC33FCC933C910D7059BE99A4007EC9BB0
:10059300FCE99AF90FD8E0E4C9FAE4CCFB2275F040
:1005A30010EF2FFFEE33FEED33FDCC33CCC833C851
:1005B30010D7079BEC9AE899400AED9BFDEC9AFC57
:1005C300E899F80FD5F0DAE4CDFBE4CCFAE4C8F906
:1005D30022C3E49FFFE49EFEE49DFDE49CFC22EB2A
:1005E3009FF5F0EA9E42F0E99D42F0E89C45F02237
:1005F300E8600FECC313FCED13FDEE13FEEF13FFE6
:10060300D8F122E8600FEFC333FFEE33FEED33FD85
:10061300EC33FCD8F122ECF208EDF208EEF208EF2D
:10062300F222D083D082E493F208740193F2087427
:100633000293F208740393F274047378AB120619ED
:1006430078AFEBF208EAF208E9F208120625000097
:10065300000078A1E2FC08E2FD08E2FE08E2FFE404
:1006630012034D78BA12061978BAE2FC08E2FD08C3
:10067300E2FE08E2FFE4FBFAF9784012023778BAA7
:1006830012061978BAE2FB08E2F908E2FA08E2CBAB
:10069300F8C00078ABE2FC08E2FD08E2FE08E2FFE6
:1006A300D00012003978BA12061978BAE2FC08E2CF
:1006B300FD08E2FE08E2FFE4FBFA7920784112012B
:1006C3002E78BA12061978BAE2FC08E2FD08E2FEB7
:1006D30008E2FF12038BC004C005C006C00778CA36
:1006E300120625000084D0D007D006D005D004120E
:1006F3000D6478B612061978B6E2FC08E2FD08E24A
:10070300FE08E2FFE412034DC004A905AA06AB07E5
:1007130078BAE2FC08E2FD08E2FE08E2FFD000122C
:10072300023778BE12061978B6E2FB08E2F908E24E
:10073300FA08E2CBF8E47FD07E84FDFC120542E4A4
:1007430012034D78C212061978C2E2FB08E2F908D7
:10075300E2FA08E2CBF8E4FFFE7D807C4712023721
:1007630078BA12061978BAE2FC08E2FD08E2FE083C
:10077300E2FFE4FBFA7980784712012E78BA120679
:100783001978BAE2FC08E2FD08E2FE08E2FF08E29B
:10079300FB08E2F908E2FA08E2CBF812012E78BA74
:1007A30012061978BAE2FC08E2FD08E2FE08E2FF4D
:1007B30012038B78B212061978B2E2FCE4FFFEFD55
:1007C300EC78181205F378AFE2FB08E2FA08E2F9D5
:1007D300EF1204520808E2FDE4FFFEE4FC78101275
:1007E30005F378AFE2FB08E2FA08E2F9900001EFC3
:1007F30012046478B20808E2FEE4FFE4FDFC780822
:100803001205F3900002EF12046478B2080808E2BC
:1008130090000312046478A1E2FC08E2FD08E2FE02
:1008230008E2FFE412034D78BA12061978BAE2FC23
:1008330008E2FD08E2FE08E2FFE4FBFAF978401261
:10084300023778BA12061978BAE2FC08E2FD08E228
:10085300FE08E2FF78ABE2FB08E2F908E2FA08E2FD
:10086300CBF812003D78BA12061978BAE2FC08E216
:10087300FD08E2FE08E2FFE4FBFA79207841120169
:100883002E78BA12061978BAE2FC08E2FD08E2FEF5
:1008930008E2FF12038BC004C005C006C00778CA74
:1008A300120625000084D0D007D006D005D004124C
:1008B3000D6478B612061978B6E2FC08E2FD08E288
:1008C300FE08E2FFE412034DC004A905AA06AB0724
:1008D30078BAE2FC08E2FD08E2FE08E2FFD000126B
:1008E300023778BE12061978B6E2FB08E2F908E28D
:1008F300FA08E2CBF8E47FD07E84FDFC120542E4E3
:1009030012034D78C212061978C2E2FB08E2F90815
:10091300E2FA08E2CBF8E4FFFE7D807C471202375F
:1009230078BA12061978BAE2FC08E2FD08E2FE087A
:10093300E2FFE4FBFA7980784712012E78BA1206B7
:100943001978BAE2FC08E2FD08E2FE08E2FF08E2D9
:10095300FB08E2F908E2FA08E2CBF812012E78BAB2
:1009630012061978BAE2FC08E2FD08E2FE08E2FF8B
:1009730012038B78B212061978B2E2FCE4FFFEFD93
:10098300EC78181205F378AFE2FB08E2FA08E2F913
:10099300900004EF12046478B208E2FDE4FFFEE481
:1009A300FC78101205F3900005EF12046478B20886
:1009B30008E2FEE4FFE4FDFC78081205F39000066C
:1009C300EF12046478B2080808E290000702046496
:1009D300E2FC08E2FD08E2FE08E2FF78EBE224080D
:1009E300F9E4FAFB78AB12061978AFEBF208EAF2F6
:1009F30008E9F2E478B4F2FFFEFDFC78ABE2FB0811
:100A0300E2F908E2FA08E2CBF81202D4501678AF02
:100A1300E2FB08E2FA08E2F978B4E2F582758300B2
:100A2300742D8041E4FBFA79C87842C00078ABE2C8
:100A3300FC08E2FD08E2FE08E2FFD00012023712D2
:100A4300038B78B2EEF208EFF24E60211808E2242D
:100A530030FF78AFE2FB08E2FA08E2F978B4E2F596
:100A630082758300EF12046478B4E204F278ABE297
:100A7300FC08E2FD08E2FE08E2FFC004C005C00670
:100A8300C00778B2E2FE08E2FF7C007D64120486B0
:100A9300AC06AD07E4120352A804A905AA06AB07E6
:100AA300D007D006D005D00412003978AB1206194E
:100AB300E4FBFA79207841C00078ABE2FC08E2FD60
:100AC30008E2FE08E2FFD00012023712038B78B26D
:100AD300EEF208EFF24E60211808E22430FF78AFFF
:100AE300E2FB08E2FA08E2F978B4E2F582758300E2
:100AF300EF12046478B4E204F278ABE2FC08E2FD9E
:100B030008E2FE08E2FFC004C005C006C00778B2D1
:100B1300E2FE08E2FF7C007D0A120486AC06AD0704
:100B2300E4120352A804A905AA06AB07D007D0060E
:100B3300D005D00412003978AB12061978ABE2FC69
:100B430008E2FD08E2FE08E2FF12038B78B2EEF240
:100B530008EFF21808E22430FF78AFE2FB08E2FA6C
:100B630008E2F978B4E2F582758300EF1204647841
:100B7300B4E204F2E2F582758300742E1204647801
:100B8300B4E204F278ABE2FC08E2FD08E2FE08E21C
:100B9300FFC004C005C006C00778B2E2FC08E2FD4E
:100BA300E4120352A804A905AA06AB07D007D0068E
:100BB300D005D00412003978AB12061978ABE2FCE9
:100BC30008E2FD08E2FE08E2FFE4FBFA792078413F
:100BD30012012E78AB12061978ABE2FC08E2FD088D
:100BE300E2FE08E2FF12038B78B2EEF208EFF22482
:100BF30030FF78AFE2FB08E2FA08E2F978B4E2F5F5
:100C030082758300EF12046478B4E204F2E2FF22F7
:100C13007893E2C394937480948050037F00227886
:100C2300F8E2640160037F0022121B12EF600612D8
:100C33001BAB7F00227BFE7A0079001217A3EF70B3
:100C430003020D1A7BFE7A00790B121461EF700315
:100C5300020D1A7BFE7A007916120EA8EF700302BA
:100C63000D1A7BFE7A007922121942EF7003020DEE
:100C73001A7BFE7A00792F1210B3EF7003020D1A5C
:100C83007BFE7A00793E121A40EF7003020D1A7B45
:100C9300FE7A007944121726EF7002807A7BFE7A7F
:100CA30000794B121814EF7002806C7BFE7A007986
:100CB300567D1F121181EF7002805C7BFE7A0079F2
:100CC3005E7D22121A8EEF7002804C7BFE7A0079D1
:100CD300667D20121181EF7002803C7BFE7A0079E1
:100CE3006E7D23121A8EEF7002802C7BFE7A0079C0
:100CF300767D21121181EF7002801C7BFE7A0079D0
:100D03007E7D24121A8EEF7002800C7BFE7A0079AE
:100D13008C121AD0EF70057893F2FF22E47893F2E5
:100D23007898E2FC08E2FD08E2FE08E2FF7B007A25
:100D33000079B912063EE4FFFE7D207C407898E2FC
:100D4300FB08E2F908E2FA08E2CBF812003D7B0067
:100D53007A0079C112063E120003789C7401F2FFF7
:100D63002278C612061978CE1206250000000178F3
:100D7300CAE2FC08E2FD08E2FE08E2FF78C6E2FBF5
:100D830008E2F908E2FA08E2CBF8C31205E27003BD
:100D9300020E8A78C6080808E25401FFE4FEFDFC4F
:100DA300FBFAF9F8C31205E2706278CA080808E290
:100DB3005401FFE4FEFDFCF8C31205E2704E78C651
:100DC300E2FC08E2FD08E2FE08E2FFE47B02F8121F
:100DD300054278C612061978CAE2FC08E2FD08E269
:100DE300FE08E2FFE47B02FAF9F812054278CA1220
:100DF300061978CEE2FC08E2FD08E2FE08E2FFE411
:100E03007B02FAF9F81204B778CE807578CAE2FC4F
:100E130008E2FD08E2FE08E2FF78C6E2FB08E2F919
:100E230008E2FA08E2CBF8D31205E2402A78C6E2D8
:100E3300FC08E2FD08E2FE08E2FF08E2FB08E2F933
:100E430008E2FA08E2CBF8EF9BFFEE9AFEED99FD7C
:100E5300EC98FC78C6802A78CAE2FC08E2FD08E236
:100E6300FE08E2FF78C6E2FB08E2F908E2FA08E2CC
:100E7300CBF8C3EF9BFFEE9AFEED99FDEC98FC785F
:100E8300CA120619020D7278C6E2FC08E2FD08E2F6
:100E9300FE08E2FF78CEE2FB08E2F908E2FA08E294
:100EA300CBF80204B712040C6423702690000112DD
:100EB30004256450701C900002120425B45713904B
:100EC3000003120425B43A0A90000B120425643B74
:100ED30060037F0022E92404F9E43AFA7D07120F44
:100EE300D278AB1206197B007A0079CF78ABE2FC9B
:100EF30008E2FD08E2FE08E2FF78BA7402F2121279
:100F03005C78ABE2FC08E2FD08E2FE08E2FF789DB4
:100F1300E2FB08E2F908E2FA08E2CBF81204B77838
:100F2300A112061978A1E2FC08E2FD08E2FE08E23C
:100F3300FFE47B04FAF9F812054278A11206197846
:100F4300ABE2FC08E2FD08E2FE08E2FFE412034D17
:100F530078A5E2FB08E2F908E2FA08E2CBF812020C
:100F63003778AF12061978A1E2FC08E2FD08E2FE29
:100F730008E2FFE412034D78AFE2FB08E2F908E26E
:100F8300FA08E2CBF812023778AF1206197894E226
:100F9300FC08E2FD08E2FE08E2FF78AFE2FB08E2AC
:100FA300F908E2FA08E2CBF812012E12038B78ABB0
:100FB3001206197A0079C978AB12124AE478CDF691
:100FC3000876017F0122E92405F9E43AFA7D0278E3
:100FD300B3EBF208EAF208E9F208EDF278B8120688
:100FE300250000000078C012062500000001E47807
:100FF300B7F278B6E2FF08E2FEC39F40030210A5F2
:10100300EEFDC3EF9DFFE49400CF24FFCF34FFFE3A
:1010130078B3E2FB08E2FA08E2F98F828E831204C6
:101023002524D0FFE434FFFE3395E0FDFC78BC12A9
:10103300061978BCE2FC08E2FD08E2FE08E2FF08BC
:10104300E2FB08E2F908E2FA08E2CBF81204B77807
:10105300BC12061978B8E2FC08E2FD08E2FE08E2D9
:10106300FF08E2FB08E2F908E2FA08E2CBF8EF2B0B
:10107300FFEE3AFEED39FDEC38FC78B8120619782C
:10108300C0E2FC08E2FD08E2FE08E2FFE47B0AFAA4
:10109300F9F81204B778C012061978B7E204F2021D
:1010A3000FF578B8E2FC08E2FD08E2FE08E2FF2251
:1010B30012040C6423703090000112042564417003
:1010C300269000021204256454701C90000312043D
:1010D30025B45413900004120425B43A0A9000076F
:1010E300120425643B60037F0022120FC978AB1200
:1010F3000619E47F11FEFDFC78ABE2FB08E2F90878
:10110300E2FA08E2CBF8D31205E2400978AB120603
:101113002500000011E4FFFEFDFC78ABE2FB08E2D2
:10112300F908E2FA08E2CBF8C31205E278AB700ED5
:10113300E2FC08E2FD08E2FE08E22403800CE2FC84
:1011430008E2FD08E2FE08E2240EFFE43EFEE43D71
:10115300FDE43CFC78AB12061978ABE2FC08E2FD37
:1011630008E2FE08E2FF780112060678AB120619C0
:1011730078AB080808E278D4F6F4F67F012278AB5E
:10118300EDF212040C64237026900001120425640E
:1011930041701C900002120425B441139000041204
:1011A3000425B43A0A900007120425643B60037FC8
:1011B3000022120FC978AC120619E47F28FEFDFC49
:1011C30078ACE2FB08E2F908E2FA08E2CBF8D312C2
:1011D30005E2400978AC1206250000002878ACE24D
:1011E300FC08E2FD08E2FE08E2FFE47B19FAF9F8E5
:1011F3001204B778AC12061978ACE2FB08E2F908DE
:10120300E2FA08E2CBF8C374E89BFF74039AFEE4A6
:1012130099FDE498FC78AC12061978ACE2FC08E27C
:10122300FD08E2FE08E2FFE47B27FAF9F812054223
:1012330078AC12061978AC080808E2FF78ABE22410
:10124300B7F8A6077F01227B00E2FC08E2FD08E273
:10125300FE08E2FF78BA7404F278B612061978BA77
:10126300E26404704A78B6E2FCE4FFFEFDEC781811
:101273001205F3EF12045278B608E2FDE4FFFEE430
:10128300FC78101205F3900001EF12046478B6089D
:1012930008E2FEE4FFE4FDFC78081205F390000287
:1012A300EF12046478B6080808E2900003805778C8
:1012B300BAE2640378B6703308E2FDE4FFFEE4FCAF
:1012C30078101205F3EF12045278B60808E2FEE430
:1012D300FFE4FDFC78081205F3900001EF120464AB
:1012E30078B6080808E2900002801B0808E2FEE4D2
:1012F300FFE4FDFC78081205F3EF12045278B608F8
:101303000808E29000011204642278EB7493F2E27D
:10131300FF04F274082FF8762378EBE2FF04F274EB
:10132300082FF8765478EBE2FF04F274082FF8766E
:101333005078EBE2FF04F274082FF8763A78F01253
:1013430009D378EBE22FF2E2FF04F274082FF87668
:101353003B78EBE2FF04F274082FF8762378EBE294
:10136300FF04F274082FF8764278EBE2FF04F2747C
:10137300082FF8765478EBE2FF04F274082FF8761E
:101383003A78EC1209D378EBE22FF2E2FF04F2741D
:10139300082FF8763B78EBE2FF04F274082FF87617
:1013A3002A78EBE2FF04F274082FF8760D78EBE26B
:1013B300FF04F274082FF8760A22AD07AC06E41294
:1013C300035278F012061978F0E2FC08E2FD08E215
:1013D300FE08E2FFE4FBFA7980784412023778F0E2
:1013E30012061978F0E2FC08E2FD08E2FE08E2FFCB
:1013F3007B007A40794E784512012E78F012061957
:1014030078F0E2FC08E2FD08E2FE08E2FF7B007AE6
:10141300407960784412003978F012061978F0E2C6
:10142300FC08E2FD08E2FE08E2FF7B667A66795675
:10143300784012023778F0120619E4FFFE7DC87C6B
:101443004278F0E2FB08E2F908E2FA08E2CBF8128C
:1014530002D4600640045390FB22439004221204FA
:101463000C642370309000011204256446702690AA
:1014730000021204256452701C900003120425B468
:101483005113900004120425B43A0A90000A12047E
:1014930025643B60037F0022E92405F9E43AFA7DE1
:1014A30005120FD278AB12061978ABE2FC08E2FD05
:1014B30008E2FE08E2C394BCFFEE9434FEED940010
:1014C300FDEC9400FC78AB12061978ABE2FC08E261
:1014D300FD08E2FE08E2FFE47B04FAF9F812054294
:1014E30078AB12061978ABE2FC08E2FD08E2FE08CD
:1014F300E2FFE412034D78981206197F01221200CD
:101503001F787FE4F6D8FD7581E402154B02199923
:10151300E493A3F8E493A34003F68001F208DFF415
:101523008029E493A3F85407240CC8C333C4540F8D
:101533004420C8834004F456800146F6DFE4800B60
:1015430001020408102040809016A5E47E019360F8
:10155300BCA3FF543F30E509541FFEE493A360018D
:101563000ECF54C025E060A840B8E493A3FAE493F7
:10157300A3F8E493A3C8C582C8CAC583CAF0A3C8A5
:10158300C582C8CAC583CADFE9DEE780BEE47B0C37
:10159300FAF9F8C00078F4E2FC08E2FD08E2FE087C
:1015A300E2FFD00012054278AB12061978ABE2FCD9
:1015B30008E2FD08E2FE08E2FFE47B02FAF9F81212
:1015C300054278AB12061978ABE2FC08E2FD08E2AB
:1015D300FE08E2FFC006C00778E9E2FE08E2FBAAC4
:1015E30006E4F9F8D007D00612054278AB120619C3
:1015F30078ABE2FB08E2F908E2FA08E2CBF8C3E4CD
:101603009BFF74019AFEE499FDE498FC78AB120603
:101613001978AB080808E2FF2278AB120625000010
:10162300000078AF120625000000007FC07E277DF2
:10163300097C0078ABE2FB08E2F908E2FA08E2CBA6
:10164300F8C31205E2505A7FA07E867D017C0078A4
:10165300AFE2FB08E2F908E2FA08E2CBF8C31205AD
:10166300E2501F78AFE2FC08E2FD08E2FE08E22444
:1016730001FFE43EFEE43DFDE43CFC78AF120619B5
:1016830080C578ABE2FC08E2FD08E2FE08E2240133
:10169300FFE43EFEE43DFDE43CFC78AB120619801A
:1016A3008A22202EB7EB900000000000000000000B
:1016B3000000000000000000000000000000000027
:1016C3000000000000000000000000000000000017
:1016D300000000819C008193008494499A33CD8457
:1016E300A53BE74DB4849D0000001484A1000000D5
:1016F300FA8498447A000081EB0084F00000000033
:1017030084EC0000000081FA0181F90081F8018472
:10171300F40175D72082E9258081E70081D2008119
:10172300E8010012040C64237030900001120425B8
:10173300644D7026900002120425644F701C9000C3
:1017430003120425B44413900004120425B43A0A86
:10175300900006120425643B60037F002278D5E6DF
:1017630054F8F6900005120425FFB4310878D5E645
:101773004401F68028EFB4320878D5E64402F680B7
:101783001C900005120425FFB4330878D5E6440302
:10179300F6800AEFB4340678D5E64404F67F0122D6
:1017A30012040C64237026900001120425644B700C
:1017B3001C900002120425B4521390000312042556
:1017C300B43A0A90000A120425643B60037F0022A6
:1017D300E92404F9E43AFA7D06120FD278AB120633
:1017E3001978ABE2FC08E2FD08E2FE08E2FFE4FB45
:1017F3007A80F9F812054278AB12061978ABE2FC4D
:1018030008E2FD08E2FE08E2FF789D1206197F0157
:101813002212040C642370269000011204256443F1
:10182300701C900002120425B45413900003120498
:1018330025B43A0A90000A120425643B60037F0032
:1018430022E92404F9E43AFA7D06120FD278AB12A6
:10185300061978ABE2FC08E2FD08E2FE08E2FFE4C9
:101863007B64FAF9F81204B778AB1206197A007997
:10187300DC78AB12124A7F0122E47B02FAF9F8C04A
:101883000078F4E2FC08E2FD08E2FE08E2FFD00083
:1018930012054278AB12061978ABE2FC08E2FD08A8
:1018A300E2FE08E2FF7BA07A257926780012054242
:1018B30078AB12061978ABE2FC08E2FD08E2FE08F9
:1018C300E224FFFFEE34FFFEED34FFFDEC34FFFCBA
:1018D30078AB12061978AB080808E2FF22C0E0C013
:1018E300D075D000C000C006C007E598540164015C
:1018F30070195398FE78E7E264147001F278E7E216
:1019030024D3F8E599F278E7E204F2E59854026407
:101913000270215398FD78EBE2FF78D2E2FEB5071F
:101923000778E87401F2800C74082EF8E6F59978CC
:10193300D2E204F2D007D006D000D0D0D0E03212E9
:10194300040C642370309000011204256450702647
:101953009000021204256452701C900003120425A7
:10196300B45413900004120425B43A0A90000C12E4
:101973000425643B60037F0022E92405F9E43AFA75
:101983007D07120FD27B007A0079D178BA7403F203
:1019930012125C7F0122121C0512161C43900212C4
:1019A3001C211219EE789CE264017007121C61E499
:1019B300789CF278E8E264017011120C13EF640171
:1019C3007003121BCD12130D121C567BFE7A007985
:1019D300A9121B87EF3395E0FEEF64014E70C078C8
:1019E300A9E2FE08E2FF1213BD80B478E7E2FD60CE
:1019F3004B7893E2FEC374939EFED39D4002AE05E3
:101A0300E4FFEFC39E501274D32FF8E2FC7893E205
:101A13002F2400F8ECF20F80E978E7E2C39EFDF291
:101A2300E4FFEFC39D5010EE2F24D3F8E2FC74D3F0
:101A33002FF8ECF20F80EB7893E22EF22212040CD3
:101A4300642370269000011204256452701C9000D8
:101A530002120425B44613900003120425B43A0A73
:101A6300900005120425643B60037F00229000046C
:101A730012042578D5B43109E64408F6439008806A
:101A830007E654F7F65390F77F012278ABEDF21295
:101A9300040C642370269000011204256450701C0A
:101AA300900002120425B45313900004120425B4C9
:101AB3003A0A900007120425643B60037F00221258
:101AC3000FC978ABE224B7F8A6077F012212040CF2
:101AD300642370269000011204256459701C900041
:101AE30002120425B45313900003120425B43A0AD6
:101AF300900006120425643B60037F0022E924045E
:101B0300120FCC7B007A0079E01212577F0122E496
:101B1300FFEF2403FDE433FC7893E2FBC3ED9B74F6
:101B230080F86C98502574002FF8E26423701974C0
:101B3300012FF8E2B44B1174022FF8E2B452097486
:101B4300032FF8E2643A60030F80C622C0E0C0D0DE
:101B530075D000C000C007E5F830E01C53F87F786B
:101B6300F9E2FF642E70051804F2800F74B72FF8A2
:101B7300E6F5A378F9E204F253F88FD007D000D04A
:101B8300D0D0E032E5E8541064106019AFBEEF7FA7
:101B930000FEADBDEF2DFFE43E8FF012049878FAFE
:101BA3007401F2FF227F00227893E2C39FF2E4FEE6
:101BB3007893E2FDEEC39D5010EE2F2400F8E2FD72
:101BC30074002EF8EDF20E80E722E4FFEFC3949346
:101BD30074809480500F74002FF8E2FE74082FF87D
:101BE300A6060F80E72243A41043A50E5390F143AA
:101BF300A60D75F4FB75D4CF75D5FF75E10375E2BA
:101C0300402253A87F121BE9121C72121C47121C9C
:101C130076120026121C37121C6B43A8802278FA16
:101C2300E2FF3395E0FEEF64014E700775BB1E4380
:101C3300E810F22275BB1275BA1F75BC4875D10F37
:101C430075E88022758920538EFC1215908F8D754F
:101C5300884022E478D2F278E8F243980222E478CA
:101C6300F9F218F243F8802275B81075A85022755E
:071C7300B2832275981022D4
:00000001FF
