:020000040000FA
:10000000021236E478E4F6FFEFC3942D74809480F6
:10001000500C74B72FF8E678E426F60F80EA2253E6
:10002000D9BF2202167D43A14075F8011216198F1F
:02003000A2220A
:100033000219660203F7E86480F8E933E8336011D4
:100043000460F0ED33EC337009E8FCE9FDEAFEEB04
:10005300FF220460DED3EB9FEA9EE99DE8C2E78CB2
:10006300F0C2F795F0400CE8CCF8E9CDF9EACEFA06
:10007300EBCFFB1203C285D0F05804700320D5B335
:10008300E80470075002B2D502040192D5EC046073
:10009300F7E4CCC0E0C398F8603B94186008400DC7
:1000A300D0E0FB0203D9E4FBFAC9FC8028E830E482
:1000B30006E4C9FBE4CAFCE830E305E4C9CACBFCA7
:1000C300E854076010F8C3E913F9EA13FAEB13FBDA
:1000D300EC13FCD8F130F52FC3E49CFCEF9BFFEE4F
:1000E3009AFEED99FDD0E0FBEF4E4D4C701222DBF2
:1000F300030203FEEC2CFCEF33FFEE33FEED33FD86
:10010300ED30E7EB0203D9EF2BFFEE3AFEED39FDBD
:10011300D0E0FB50130BBB0003020401ED13FDEE13
:1001230013FEEF13FFEC13FC0203D9EC4D6011E84F
:10013300497017ED33EC3304600DE4FCFFFEFD2240
:10014300E933E8330470F80203F71203C25804607A
:1001530009E4CC24815006285009020401284003F5
:100163000203FEC0E0EB4A7044B98006D0E0FB0214
:1001730003EDEF4E701CBD8008EBFFEAFEE9FD8046
:10018300EBE98DF0A4FEE5F0020217E9CDF9EAFEF2
:10019300EBFFEF89F0A4FCE5F0CE89F0A42EFFE499
:1001A30035F0CD89F0A42DFEE435F08067EF4E7075
:1001B30005BD80D780C3EF8BF0A4ACF0EE8BF0A429
:1001C3002CFCE435F0F8EF8AF0A42CE5F038FCE4DD
:1001D30033CB8DF0A42CFCE5F03BF8EE8AF0A42C95
:1001E300FCE5F038F8E433CF89F0A42CFCE5F038D3
:1001F300CF3400CE89F0A42FFFE5F03EFEE433C9EF
:100203008DF0A42EFEE5F039CD8AF0A42FFFE5F0A2
:100213003EFEE43DFD33D0E0FB50070BBB000F0275
:100223000401EC2CFCEF33FFEE33FEED33FD020350
:10023300D9020401EC5D046005E85904700302036C
:10024300F71203C2580460F6EC4860F2EC7004FD48
:10025300FEFF22C860DB2481C85009C398600250A6
:10026300060203FE9850CAF582E9294B4A7005AB92
:10027300820203ED75F0007C1A7880C3EF9BEE9A3F
:10028300ED99400DC3EF9BFFEE9AFEED99FDE84219
:10029300F0DC23ACF0D0E0FFD0E0FED0E0FDAB8299
:1002A30020E7101BEB60BAEC2CFCEF33FFEE33FEC0
:1002B300ED33FD0203D9E803F830E705C0F075F02C
:1002C30000EF2FFFEE33FEED33FD40B830E7C28081
:1002D300AA74F8CC6480CCC86480C8F58204604FEB
:1002E300C3EB9FF5F0EA9E42F0E99D42F0E89C459E
:1002F300F0603C501DE5825FFFE582D313CB5BCBFF
:10030300F42B5582FB50280ABA002409B9002008AF
:10031300801DE5825BFBE582D313CF5FCFF4C3136C
:100323002F5582FF50090EBE00050DBD00010CC301
:10033300EB9FF5F0EA9E42F0E99D42F0E89C45F020
:100343006007CC4820E701B3EC2275F020800E75DE
:10035300F010800575F0087D007E007F003392D594
:1003630030D5031205D4EC334010EF33FFEE33FEE8
:10037300ED33FDEC33FCD5F0ED22E5F0247EA2D580
:1003830013CC92E7CDCEFF22EDD2E7CD33EC3392FF
:10039300D524814006E4FFFEFDFC22FCE4CFCECD54
:1003A300CC24E0501174FF80EDC3CC13CCCD13CD1E
:1003B300CE13CECF13CF0470F030D5DE0205D4E9CF
:1003C300D2E7C933E833F892D5EDD2E7CD33EC3336
:1003D300FC5002B2D522EC30E7100FBF000C0EBE6A
:1003E30000080DBD00040BEB6014A2D5EB13FCED6C
:1003F30092E7FD2274FFFCFDFEFF22E480F8A2D504
:1004030074FF13FC7D80E480EFBB010689828A833D
:10041300E0225002E722BBFE02E32289828A83E4C0
:100423009322BB010CE58229F582E5833AF583E04B
:10043300225006E92582F8E622BBFE06E92582F86A
:10044300E222E58229F582E5833AF583E49322BB30
:10045300010689828A83F0225002F722BBFE01F350
:1004630022F8BB010DE58229F582E5833AF583E89D
:10047300F0225006E92582C8F622BBFE05E9258253
:10048300C8F222EF8DF0A4A8F0CF8CF0A428CE8D73
:10049300F0A42EFE22BB010A89828A83F0E5F0A331
:1004A300F0225006F709A7F01922BBFE06F3E5F088
:1004B30009F31922E88FF0A4CC8BF0A42CFCE98E6D
:1004C300F0A42CFC8AF0EDA42CFCEA8EF0A4CDA8B9
:1004D300F08BF0A42DCC3825F0FDE98FF0A42CCDC2
:1004E30035F0FCEB8EF0A4FEA9F0EB8FF0A4CFC5A2
:1004F300F02ECD39FEE43CFCEAA42DCE35F0FDE42C
:100503003CFC2275F008758200EF2FFFEE33FECD21
:1005130033CDCC33CCC58233C5829BED9AEC99E5C0
:100523008298400CF582EE9BFEED9AFDEC99FC0F50
:10053300D5F0D6E4CEFBE4CDFAE4CCF9A88222B818
:1005430000C1B90059BA002DEC8BF084CFCECDFC9D
:10055300E5F0CBF97818EF2FFFEE33FEED33FDEC2A
:1005630033FCEB33FB10D703994004EB99FB0FD813
:10057300E5E4F9FA227818EF2FFFEE33FEED33FDB1
:10058300EC33FCC933C910D7059BE99A4007EC9BB0
:10059300FCE99AF90FD8E0E4C9FAE4CCFB2275F040
:1005A30010EF2FFFEE33FEED33FDCC33CCC833C851
:1005B30010D7079BEC9AE899400AED9BFDEC9AFC57
:1005C300E899F80FD5F0DAE4CDFBE4CCFAE4C8F906
:1005D30022C3E49FFFE49EFEE49DFDE49CFC22EB2A
:1005E3009FF5F0EA9E42F0E99D42F0E89C45F02237
:1005F300E8600FECC313FCED13FDEE13FEEF13FFE6
:10060300D8F122E8600FEFC333FFEE33FEED33FD85
:10061300EC33FCD8F122ECF208EDF208EEF208EF2D
:10062300F222D083D082E493F208740193F2087427
:100633000293F208740393F274047378AC120619EC
:1006430078B0EBF208EAF208E9F208120625000096
:10065300000078A1E2FC08E2FD08E2FE08E2FF7870
:10066300011205F378B312061978B3E2FB08E2F935
:1006730008E2FA08E2CBF8C00078ACE2FC08E2FD3D
:1006830008E2FE08E2D000C39BFFEE9AFEED99FD5F
:10069300EC98FC78B312061978CB12062500000DEE
:1006A30048120CCB78B712061978B7E2FB08E2F9C7
:1006B30008E2FA08E2CBF8C00078B3E2FC08E2FDF6
:1006C30008E2FE08E2FFD000120542E412034D786F
:1006D300BF12061978B7E2FB08E2F908E2FA08E26A
:1006E300CBF8E47F487E0DFDFC120542E412034D76
:1006F30078C312061978C3E2FB08E2F908E2FA08A4
:10070300E2CBF8E4FFFE7D807C4712023778BB1210
:10071300061978BBE2FC08E2FD08E2FE08E2FFE40A
:10072300FBFA7980784712012E78BB12061978BB41
:10073300E2FC08E2FD08E2FE08E2FF08E2FB08E251
:10074300F908E2FA08E2CBF812012E78BB12061977
:1007530078BBE2FC08E2FD08E2FE08E2FF12038B2D
:1007630078B312061978B3E2FCE4FFFEFDEC7818C7
:100773001205F378B0E2FB08E2FA08E2F9EF12049B
:10078300520808E2FDE4FFFEE4FC78101205F3785A
:10079300B0E2FB08E2FA08E2F9900001EF12046408
:1007A30078B30808E2FEE4FFE4FDFC78081205F3E1
:1007B300900002EF12046478B3080808E290000383
:1007C30012046478A1E2FC08E2FD08E2FE08E2FFFD
:1007D30078011205F378B312061978B3E2FC08E244
:1007E300FD08E2FE08E2FF78ACE2FB08E2F908E26A
:1007F300FA08E2CBF8EB2FFFEA3EFEE93DFDE83CC9
:10080300FC78B312061978CB12062500000D4812A6
:100813000CCB78B712061978B7E2FB08E2F908E2C5
:10082300FA08E2CBF8C00078B3E2FC08E2FD08E284
:10083300FE08E2FFD000120542E412034D78BF1216
:10084300061978B7E2FB08E2F908E2FA08E2CBF806
:10085300E47F487E0DFDFC120542E412034D78C38C
:1008630012061978C3E2FB08E2F908E2FA08E2CBC0
:10087300F8E4FFFE7D807C4712023778BB1206192D
:1008830078BBE2FC08E2FD08E2FE08E2FFE4FBFAC3
:100893007980784712012E78BB12061978BBE2FCE7
:1008A30008E2FD08E2FE08E2FF08E2FB08E2F908BD
:1008B300E2FA08E2CBF812012E78BB12061978BBD4
:1008C300E2FC08E2FD08E2FE08E2FF12038B78B3C4
:1008D30012061978B3E2FCE4FFFEFDEC781812056A
:1008E300F378B0E2FB08E2FA08E2F9900004EF12B1
:1008F300046478B308E2FDE4FFFEE4FC781012051B
:10090300F3900005EF12046478B30808E2FEE4FFF5
:10091300E4FDFC78081205F3900006EF12046478F6
:10092300B3080808E2900007020464E2FC08E2FD51
:1009330008E2FE08E2FF78E2E22408F9E4FAFB7831
:10094300AC12061978B0EBF208EAF208E9F2E4789F
:10095300B5F2FFFEFDFC78ACE2FB08E2F908E2FA2F
:1009630008E2CBF81202D4501678B0E2FB08E2FAA0
:1009730008E2F978B5E2F582758300742D8041E4CD
:10098300FBFA79C87842C00078ACE2FC08E2FD08C3
:10099300E2FE08E2FFD00012023712038B78B3EEB7
:1009A300F208EFF24E60211808E22430FF78B0E23B
:1009B300FB08E2FA08E2F978B5E2F582758300EF05
:1009C30012046478B5E204F278ACE2FC08E2FD08B4
:1009D300E2FE08E2FFC004C005C006C00778B3E228
:1009E300FE08E2FF7C007D64120486AC06AD07E4DA
:1009F300120352A804A905AA06AB07D007D006D054
:100A030005D00412003978AC120619E4FBFA7920F8
:100A13007841C00078ACE2FC08E2FD08E2FE08E29F
:100A2300FFD00012023712038B78B3EEF208EFF215
:100A33004E60211808E22430FF78B0E2FB08E2FAA6
:100A430008E2F978B5E2F582758300EF1204647861
:100A5300B5E204F278ACE2FC08E2FD08E2FE08E24B
:100A6300FFC004C005C006C00778B3E2FE08E2FF7A
:100A73007C007D0A120486AC06AD07E4120352A87B
:100A830004A905AA06AB07D007D006D005D00412E7
:100A9300003978AC12061978ACE2FC08E2FD08E2F2
:100AA300FE08E2FF12038B78B3EEF208EFF21808A8
:100AB300E22430FF78B0E2FB08E2FA08E2F978B505
:100AC300E2F582758300EF12046478B5E204F2E282
:100AD300F582758300742E12046478B5E204F2780B
:100AE300ACE2FC08E2FD08E2FE08E2FFC004C00538
:100AF300C006C00778B3E2FC08E2FDE4120352A883
:100B030004A905AA06AB07D007D006D005D0041266
:100B1300003978AC12061978ACE2FC08E2FD08E271
:100B2300FE08E2FFE4FBFA7920784112012E78AC4B
:100B330012061978ACE2FC08E2FD08E2FE08E2FFC7
:100B430012038B78B3EEF208EFF22430FF78B0E2B1
:100B5300FB08E2FA08E2F978B5E2F582758300EF63
:100B630012046478B5E204F2E2FF227893E2C394BC
:100B7300937480948050037F002278EFE2640160D5
:100B8300037F0022121929EF600C7893E2C39FFFC1
:100B93001219E77F00227BFE7A007900121540EFDD
:100BA3007003020C7B7BFE7A00790B12119AEF70B3
:100BB30003020C7B7BFE7A007916120E1CEF700386
:100BC300020C7B7BFE7A0079221216DFEF700302A0
:100BD3000C7B7BFE7A00792F121788EF7003020CCF
:100BE3007B7BFE7A00793E1217D5EF7003020C7BF4
:100BF3007BFE7A007944121452EF7002807A7BFEF6
:100C03007A00794B1215B1EF7002806C7BFE7A008B
:100C130079567D1F121863EF7002805C7BFE7A00A9
:100C2300795E7D221218A5EF7002804C7BFE7A005C
:100C330079667D20121863EF7002803C7BFE7A0098
:100C4300796E7D231218A5EF7002802C7BFE7A004B
:100C530079767D21121863EF7002801C7BFE7A0087
:100C6300797E7D241218A5EF7002800C7BFE7A003A
:100C7300798C1218E7EF70057893F2FF22E47893EA
:100C8300F27898E2FC08E2FD08E2FE08E2FF7B004E
:100C93007A0079B912063E7898E2FC08E2FD08E290
:100CA300FE08E2FFE412034DE4FBFA7920784012D8
:100CB300003D12038B7B007A0079C112063E1200BD
:100CC30003789C7401F2FF2278B3E2FC08E2FD088A
:100CD300E2FE08E2FF78C712061978CF1206250054
:100CE30000000178CBE2FC08E2FD08E2FE08E2FF27
:100CF30078C7E2FB08E2F908E2FA08E2CBF8C3128C
:100D030005E27003020DFE78C7080808E25401FFEC
:100D1300E4FEFDFCFBFAF9F8C31205E2706278CB3E
:100D2300080808E25401FFE4FEFDFCF8C31205E2E3
:100D3300704E78C7E2FC08E2FD08E2FE08E2FFE439
:100D43007B02F812054278C712061978CBE2FC0839
:100D5300E2FD08E2FE08E2FFE47B02FAF9F812057D
:100D63004278CB12061978CFE2FC08E2FD08E2FED6
:100D730008E2FFE47B02FAF9F81204B778CF807532
:100D830078CBE2FC08E2FD08E2FE08E2FF78C7E266
:100D9300FB08E2F908E2FA08E2CBF8D31205E240D5
:100DA3002A78C7E2FC08E2FD08E2FE08E2FF08E257
:100DB300FB08E2F908E2FA08E2CBF8EF9BFFEE9AB0
:100DC300FEED99FDEC98FC78C7802A78CBE2FC080D
:100DD300E2FD08E2FE08E2FF78C7E2FB08E2F90859
:100DE300E2FA08E2CBF8C3EF9BFFEE9AFEED99FD22
:100DF300EC98FC78CB120619020CE678C7E2FC08E3
:100E0300E2FD08E2FE08E2FF78CFE2FB08E2F90820
:100E1300E2FA08E2CBF80204B712040C642370264A
:100E23009000011204256450701C900002120425E6
:100E3300B45713900003120425B43A0A90000B121E
:100E43000425643B60037F0022E92404F9E43AFAB1
:100E53007D07120F4678AC1206197B007A0079CF12
:100E630078ACE2FC08E2FD08E2FE08E2FF78BB741E
:100E730002F212103978ACE2FC08E2FD08E2FE0847
:100E8300E2FF789DE2FB08E2F908E2FA08E2CBF818
:100E93001204B778A112061978A1E2FC08E2FD0852
:100EA300E2FE08E2FFE47B04FAF9F812054278A1B6
:100EB30012061978ACE2FC08E2FD08E2FE08E2FF44
:100EC300E412034D78A5E2FB08E2F908E2FA08E22E
:100ED300CBF812023778B012061978A1E2FC08E2C7
:100EE300FD08E2FE08E2FFE412034D78B0E2FB08DE
:100EF300E2F908E2FA08E2CBF812023778B01206F8
:100F0300197894E2FC08E2FD08E2FE08E2FF78B0FB
:100F1300E2FB08E2F908E2FA08E2CBF812012E122A
:100F2300038B78AC1206197A0079C978AC121027B2
:100F3300E478CDF60876017F0122E92405F9E43A45
:100F4300FA7D0278B4EBF208EAF208E9F208EDF26E
:100F530078B91206250000000078C11206250000AA
:100F63000001E478B8F278B7E2FF08E2FEC39F40DD
:100F730003021019EEFDC3EF9DFFE49400CF24FF9D
:100F8300CF34FFFE78B4E2FB08E2FA08E2F98F827D
:100F93008E8312042524D0FFE434FFFE3395E0FD55
:100FA300FC78BD12061978BDE2FC08E2FD08E2FEFA
:100FB30008E2FF08E2FB08E2F908E2FA08E2CBF8EC
:100FC3001204B778BD12061978B9E2FC08E2FD08ED
:100FD300E2FE08E2FF08E2FB08E2F908E2FA08E2AF
:100FE300CBF8EF2BFFEE3AFEED39FDEC38FC78B988
:100FF30012061978C1E2FC08E2FD08E2FE08E2FFEE
:10100300E47B0AFAF9F81204B778C112061978B822
:10101300E204F2020F6978B9E2FC08E2FD08E2FE9D
:1010230008E2FF227B00E2FC08E2FD08E2FE08E2A0
:10103300FF78BB7404F278B712061978BBE2640434
:10104300704A78B7E2FCE4FFFEFDEC78181205F372
:10105300EF12045278B708E2FDE4FFFEE4FC7810D7
:101063001205F3900001EF12046478B70808E2FE5A
:10107300E4FFE4FDFC78081205F3900002EF12048C
:101083006478B7080808E2900003805778BBE264ED
:101093000378B7703308E2FDE4FFFEE4FC78101236
:1010A30005F3EF12045278B70808E2FEE4FFE4FD0B
:1010B300FC78081205F3900001EF12046478B70876
:1010C3000808E2900002801B0808E2FEE4FFE4FD4A
:1010D300FC78081205F3EF12045278B7080808E207
:1010E3009000011204642278E27493F2E2FF04F2A6
:1010F30074082FF8762378E2E2FF04F274082FF8DD
:10110300765478E2E2FF04F274082FF8765078E21E
:10111300E2FF04F274082FF8763A78E712092E7882
:10112300E2E22FF2E2FF04F274082FF8763B78E252
:10113300E2FF04F274082FF8762378E2E2FF04F268
:1011430074082FF8764278E2E2FF04F274082FF86D
:10115300765478E2E2FF04F274082FF8763A78E3E3
:1011630012092E78E2E22FF2E2FF04F274082FF85C
:10117300763B78E2E2FF04F274082FF8762A78E2ED
:10118300E2FF04F274082FF8760D78E2E2FF04F22E
:1011930074082FF8760A2212040C6423703090002E
:1011A300011204256446702690000212042564523D
:1011B300701C900003120425B45113900004120410
:1011C30025B43A0A90000A120425643B60037F00A9
:1011D30022E92405F9E43AFA7D05120F4678AC12A8
:1011E300061978ACE2FC08E2FD08E2FE08E2C394CB
:1011F300BCFFEE9434FEED9400FDEC9400FC78AC5F
:1012030012061978ACE2FC08E2FD08E2FE08E2FFF0
:10121300E47B04FAF9F812054278AC12061978ACAB
:10122300E2FC08E2FD08E2FE08E2FF7898120619E4
:101233007F012212001F787FE4F6D8FD7581E40256
:1012430012800214CFE493A3F8E493A34003F6803F
:1012530001F208DFF48029E493A3F85407240CC8AF
:10126300C333C4540F4420C8834004F4568001465A
:10127300F6DFE4800B010204081020408090135134
:10128300E47E019360BCA3FF543F30E509541FFE85
:10129300E493A360010ECF54C025E060A840B8E4F6
:1012A30093A3FAE493A3F8E493A3C8C582C8CAC579
:1012B30083CAF0A3C8C582C8CAC583CADFE9DEE70B
:1012C30080BEE47B0CFAF9F8C00078EBE2FC08E29C
:1012D300FD08E2FE08E2FFD00012054278AC1206D8
:1012E3001978ACE2FC08E2FD08E2FE08E2FFE47BC9
:1012F30002FAF9F812054278AC12061978ACE2FC4E
:1013030008E2FD08E2FE08E2FFC006C00778E0E25B
:10131300FE08E2FBAA06E4F9F8D007D0061205425C
:1013230078AC12061978ACE2FB08E2F908E2FA0895
:10133300E2CBF8C3E49BFF74019AFEE499FDE498C1
:10134300FC78AC12061978AC080808E2FF22202EBC
:10135300B7EB900000000000000000000000000058
:10136300000000000000000000000000000000007A
:1013730000000000000000000000000000000081E9
:101383009C008193008494499A33CD84A53BE74D17
:10139300B4849D0000001484A1000000FA84980026
:1013A30000445C81E20084E70000000084E3000065
:1013B300000081F10181F00081EF0184EB0175D719
:1013C3002082E0258081DE0081D30081DF0100AD32
:1013D30007AC06E412035278E712061978E7E2FC39
:1013E30008E2FD08E2FE08E2FFE4FBFA79807844B4
:1013F30012023778E712061978E7E2FC08E2FD08E3
:10140300E2FE08E2FF7B007A40794E784512012E16
:1014130078E712061978E7E2FC08E2FD08E2FE0825
:10142300E2FF7B007A407960784412003978E71252
:10143300061978E7E2FC08E2FD08E2FE08E2FF7B1A
:10144300667A667956784012023778E702061912EF
:10145300040C64237030900001120425644D70263F
:10146300900002120425644F701C9000031204259F
:10147300B44413900004120425B43A0A90000612EF
:101483000425643B60037F002278D5E654F8F69088
:101493000005120425FFB4310878D5E64401F6802F
:1014A30028EFB4320878D5E64402F6801C90000594
:1014B300120425FFB4330878D5E64403F6800AEF17
:1014C300B4340678D5E64404F67F0122E478ABF21F
:1014D300121A2578ABE2FF12199E121736789CE296
:1014E30064017007121A81E4789CF278DFE26401E8
:1014F3007011120B6EEF64017003121A091210EAD5
:10150300121A767BFE7A0079A91219C3EF3395E09C
:10151300FEEF64014E70BC78ABE2701178A9E2FE75
:1015230008E2FF1213D278AB7401F280A678A9E225
:10153300FE08E2FF12181DE478ABF2809612040C49
:1015430064237026900001120425644B701C9000E4
:1015530002120425B45213900003120425B43A0A6C
:1015630090000A120425643B60037F0022E92404EF
:10157300F9E43AFA7D06120F4678AC12061978ACF4
:10158300E2FC08E2FD08E2FE08E2FFE4FB7A80F9F0
:10159300F812054278AC12061978ACE2FC08E2FDB9
:1015A30008E2FE08E2FF789D1206197F0122120469
:1015B3000C642370269000011204256443701C9070
:1015C3000002120425B45413900003120425B43A04
:1015D3000A90000A120425643B60037F0022E92479
:1015E30004F9E43AFA7D06120F4678AC120619782C
:1015F300ACE2FC08E2FD08E2FE08E2FFE47B64FAE9
:10160300F9F81204B778AC1206197A0079DC78ACD1
:101613001210277F0122E47B02FAF9F8C00078EB6D
:10162300E2FC08E2FD08E2FE08E2FFD000120542F8
:1016330078AC12061978ACE2FC08E2FD08E2FE0879
:10164300E2FF7BA07A257926780012054278AC1256
:10165300061978ACE2FC08E2FD08E2FE08E224FF8A
:10166300FFEE34FFFEED34FFFDEC34FFFC78AC12EB
:10167300061978AC080808E2FF22C0E0C0D075D094
:1016830000C000C006C007E59854016401701953F7
:1016930098FE78DEE2640A7001F278DEE224D4F880
:1016A300E599F278DEE204F2E598540264027021CF
:1016B3005398FD78E2E2FF78D3E2FEB5070778DFBF
:1016C3007401F2800C74082EF8E6F59978D3E204DD
:1016D300F2D007D006D000D0D0D0E03212040C6490
:1016E300237030900001120425645070269000028C
:1016F3001204256452701C900003120425B4541381
:10170300900004120425B43A0A90000C12042564D4
:101713003B60037F0022E92405F9E43AFA7D0712CE
:101723000F467B007A0079D178BB7403F21210392B
:101733007F012278DEE2FD604B7893E2FEC374936F
:101743009EFED39D4002AE05E4FFEFC39E5012748C
:10175300D42FF8E2FC7893E22F2400F8ECF20F8008
:10176300E978DEE2C39EFDF2E4FFEFC39D5010EE85
:101773002F24D4F8E2FC74D42FF8ECF20F80EB782A
:1017830093E22EF22212040C6423703090000112B3
:101793000425644170269000021204256454701CD1
:1017A300900003120425B45413900004120425B4CA
:1017B3003A0A900007120425643B60037F0022125B
:1017C3000F3D7801120606EF240D78D4F6F4F67F68
:1017D300012212040C642370269000011204256474
:1017E30052701C900002120425B446139000031299
:1017F3000425B43A0A900005120425643B60037F74
:10180300002290000412042578D5B43106E644087A
:10181300F68004E654F7F67F0122AD07AC06E41226
:10182300035278E312061978E3E2FC08E2FD08E2CA
:10183300FE08E2FF7B337A337953784012012E7826
:10184300E312061978E3E2FC08E2FD08E2FE08E28F
:10185300FFE4FBFA7980784512023778E302061930
:1018630078ACEDF212040C6423702690000112048C
:10187300256441701C900002120425B441139000AA
:1018830004120425B43A0A900007120425643B604D
:10189300037F0022120F3D78ACE224B7F8A6077F3E
:1018A300012278ACEDF212040C642370269000013F
:1018B3001204256450701C900002120425B45313C3
:1018C300900004120425B43A0A9000071204256418
:1018D3003B60037F0022120F3D78ACE224B7F8A6E9
:1018E300077F012212040C64237026900001120466
:1018F300256459701C900002120425B45313900000
:1019030003120425B43A0A900006120425643B60CE
:10191300037F0022E92404120F407B007A0079E060
:101923001210347F0122E4FFEF2403FDE433FC783B
:1019330093E2FBC3ED9B7480F86C98502574002FE1
:10194300F8E26423701974012FF8E2B44B117402A6
:101953002FF8E2B4520974032FF8E2643A60030FDC
:1019630080C622C0E0C0D075D000C000C007E5F833
:1019730030E01C53F87F78F0E2FF642E7005180402
:10198300F2800F74B72FF8E6F5A378F0E204F25370
:10199300F88FD007D000D0D0D0E03278F1E2FD3319
:1019A30095E0FCED64014C7016EF3395E04F700544
:1019B30075BB1E800375BB1243E810E478F1F22275
:1019C300E5E8541064106019AFBEEF7F00FEADBDB3
:1019D300EF2DFFE43E8FF012049878F17401F2FFCB
:1019E300227F00227893E2C39FF2E4FE7893E2FD24
:1019F300EEC39D5010EE2F2400F8E2FD74002EF884
:101A0300EDF20E80E722E4FFEFC394937480948099
:101A1300500F74002FF8E2FE74082FF8A6060F800B
:101A2300E72253A87F121A41121A92121A67121A46
:101A330096120026121A57121A8B43A8802243A427
:101A43001043A60D75F4FB75D4CF75D5FF75E1036F
:101A530075E2402275BB1275BA1F75BC4875D10F6C
:101A630075E88022758920538EFC1212C58F8D75FF
:101A7300884022E478D3F278DFF243980222E478B4
:101A8300F0F218F243F8802275B81075A850227549
:071A9300B2832275981022B6
:00000001FF
